:100000000C9472000C9493000C9493000C94930045
:100010000C9493000C94D1040C94AC040C949300B5
:100020000C9493000C9493000C9493000C94930004
:100030000C9493000C9493000C9493000C949300F4
:100040000C9493000C9493000C9493000C949300E4
:100050000C9493000C9493000C9493000C949300D4
:100060000C9493000C9422040C9493000C94930031
:100070000C9493000C9493000C9493000C949300B4
:100080000C9493000C9493000C9493000C949300A4
:100090000C9493000C9493000C9493000C94930094
:1000A0000C9493000C9493000C9493000C94930084
:1000B0000C9493000C9493000C9493000C94930074
:1000C0000C9493000C9493000C9493000C941E03D6
:1000D0000C9493000C9493000C9493000C94930054
:1000E0000C94930011241FBECFEFD1E2DEBFCDBF31
:1000F00000E00CBF15E1A0E0B2E0E8EEF4E200E0C1
:100100000BBF02C007900D92A431B107D9F717E1D8
:10011000A4E1B5E101C01D92A030B107E1F70E9452
:100120003B090C9472120C94000087B1876F87B959
:1001300088B1807888B9089586E69EE0FC01319701
:10014000F1F74098419840E348B9429A20E038E4FA
:10015000F9013197F1F74298FC013197F1F7409896
:10016000419848B9429AF9013197F1F74298FC0158
:100170003197F1F74098419848B9429AF90131977F
:10018000F1F742980197F1F74098419880E288B9D9
:10019000429AC9010197F1F74298089598B19F706A
:1001A00098B928B1982F907F922B98B94098419890
:1001B000429A20E038E4F9013197F1F7429898B17A
:1001C0009F7098B998B18295807F982B98B9409884
:1001D0004198429AC9010197F1F7429808950E9407
:1001E0009C0086E69EE00197F1F788E20E94CE002F
:1001F00081E00E94CE0086E00E94CE008EE00E9448
:10020000CE0080E80E94CE00089598B19F7098B902
:1002100028B1982F907F922B98B9409A4198429A92
:1002200020E038E4F9013197F1F7429898B19F70D6
:1002300098B998B18295807F982B98B9409A419847
:10024000429AC9010197F1F74298089580E80E9407
:10025000CE000895CF93DF93EC0103C00E94050107
:10026000219688818823D1F7DF91CF91089582303C
:1002700069F0833018F48130A9F405C0833049F067
:10028000843081F40BC0862F815805C0862F81549D
:1002900002C0862F8D560E94CE000895862F8D5263
:1002A0000E94CE0008950F931F93CF93DF938A018E
:1002B000E901882311F0662319F40E94260102C087
:1002C0000E943701C530D10571F4C80160E177E2C1
:1002D0000E942712CB01C09690933916809338164E
:1002E0000E94050105C0C430D10511F080E016C0A0
:1002F000C80168EE73E00E942712CB0160937C1660
:1003000090937D166AE070E00E942712C096909349
:10031000FC168093FB160E94050181E0C330D105D5
:1003200021F0813011F080E016C0C80164E670E071
:100330000E942712CB0160937C1690937D166AE091
:1003400070E00E942712C0969093E6168093E516FF
:100350000E94050181E0C230D10521F0813011F009
:1003600080E016C0C8016AE070E00E942712CB014D
:1003700060937C1690937D166AE070E00E942712CD
:10038000C0969093801680937F160E94050181E0AD
:10039000C130D10511F0813061F4C8016AE070E02C
:1003A0000E942712C0969093FA168093F9160E9425
:1003B000050126971CF085E40E940501DF91CF918D
:1003C0001F910F910895AF92BF92CF92DF92EF925B
:1003D000FF920F931F93CF93DF937C015B01FC018E
:1003E000EE0FFF1FE159FA4E81E090E09183808388
:1003F0008091141590911515FC01EE0FFF1FEF521F
:10040000FA4EF182E082AC014F5F5F4F50931515B9
:1004100040931415E616F70631F56091A40B709120
:10042000A50B461757070CF045C0A1EDB5E1E1E873
:10043000F6E120E030E00FC02417350734F48D9149
:100440009C9111979183808302C0118210822F5F4B
:100450003F4F129632962617370774F35093A50B29
:100460004093A40B27C09FE6C92E95E1D92E81E3C6
:1004700090E0E89EE001E99ED00DF89ED00D112499
:10048000CD5BDD4F00E010E0F60180819181892B8A
:1004900039F48881882321F0C801B5010E94E30165
:1004A0000F5F1F4F82E090E0C80ED91E21960133E6
:1004B000110551F7EE0CFF1CEFE6F5E1EE0EFF1E05
:1004C000F7011182108280911415909115150197F2
:1004D0009093151580931415DF91CF911F910F9173
:1004E000FF90EF90DF90CF90BF90AF900895409134
:1004F0001415509115156091A40B7091A50B46171A
:100500005707ECF4A1EDB5E1E1E8F6E120E030E0D9
:100510000FC02417350734F48D919C911197918366
:10052000808302C0118210822F5F3F4F1296329655
:100530002617370774F35093A50B4093A40B089527
:1005400010BA11BA10920701109208010895EAE753
:10055000F0E0108210927B0080E280937C0080E8C3
:1005600080BF86E880830895982F883018F088E04F
:1005700080937B009770906290937C0080917A00CA
:10058000806480937A0080917A0084FFFCCF809110
:10059000790090917A00906190937A0010927B009C
:1005A00008950F931F93182F062F842F0E94B402D3
:1005B000482F80937E16812F602F50E023E030E09B
:1005C0000E9453011F910F91089583E00E94B4028D
:1005D0008093161582E00E94B4028093171581E083
:1005E0000E94B402809318158BE00E94B40280939D
:1005F0001A1581E061E043E00E94D10281E065E0EC
:1006000042E00E94D10281E069E041E00E94D10213
:1006100081E06CE04BE00E94D1020895E1EDF0E052
:1006200010821092D00086E08093D2008FE58093F4
:10063000D4001092D50088E9808308951F920F920C
:100640000FB60F920BB60F921124EF92FF920F93F9
:100650001F932F933F934F935F936F937F938F934A
:100660009F93AF93BF93CF93DF93EF93FF9340910B
:10067000D60040933716463679F19091E50BA0E00D
:10068000B0E0FD01E755F44F80819817F1F4FD01CA
:10069000E854F44F80814817C1F420911D15309122
:1006A0001E15F901EE0FFF1FE35DFA4EAA0FBB1FE7
:1006B000A953B44F8D919C91918380832F5F3F4FBD
:1006C00030931E1520931D1504C01196AF30B1054F
:1006D000C1F64093E50B31C080911D1590911E1518
:1006E00090933416809333160DE215E1C0E0D0E00C
:1006F00040E7E42E41E0F42E13C0F801408151811F
:1007000081E063E022E030E00E94530188EB9BE04F
:10071000F7013197F1F70197D9F721960E5F1F4F37
:1007200080911D1590911E15C817D90734F381E0EB
:1007300090E090931C1580931B15FF91EF91DF9132
:10074000CF91BF91AF919F918F917F916F915F9169
:100750004F913F912F911F910F91FF90EF900F902C
:100760000BBE0F900FBE0F901F901895E1ECF0E0BC
:1007700010821092C00086E08093C2008FE58093C3
:10078000C4001092C50088E980830895EF92FF921B
:100790000F931F93CF93DF9381E48093C60080EA89
:1007A0009FE020E731E0F9013197F1F70197D9F7A0
:1007B000CDE2D5E100E010E070E7E72E71E0F72E22
:1007C00016C04881598181E064E022E030E00E9457
:1007D00053018881805D8093C60080E797E1F7012F
:1007E0003197F1F70197D9F70F5F1F4F229680914C
:1007F000331690913416081719071CF38DE6809371
:10080000C60088E893E120E731E0F9013197F1F77C
:100810000197D9F7DF91CF911F910F91FF90EF9042
:10082000089502C00E9426018091A80B8335D1F75C
:100830000E94C60302C00E9426018091FF168D36D9
:10084000D1F708951F920F920FB60F920BB60F9229
:1008500011242F933F934F935F936F937F938F93C5
:100860009F93AF93BF93EF93FF934091C600409344
:10087000A80B8091FF168D3691F450E04053504004
:10088000FA01EE0FFF1FE65CF94E81E090E09183E4
:10089000808381E06FE022E030E00E94530180918C
:1008A000A80B8D3611F48093FF16FF91EF91BF9145
:1008B000AF919F918F917F916F915F914F913F91F8
:1008C0002F910F900BBE0F900FBE0F901F90189599
:1008D00081B18F6081B982B1807F82B9EAE0F1E0B5
:1008E000808188618083EBE0F1E080818861808392
:1008F00008956C98749A08956D98759A0895E1E238
:10090000F1E010829FEF9093250181E08093240114
:10091000109229019093280110922B0190932A01A3
:1009200010922D0190932C0189EA809320018BE095
:1009300080830895F894EAE6F0E080818260808305
:10094000EC9A78940895F894EAE6F0E08081886063
:100950008083ED9A789408951F920F920FB60F92AC
:1009600011248F939F93AF93BF9380912315909100
:100970002415A0912515B09126150196A11DB11D34
:100980008093231590932415A0932515B0932615D5
:10099000BF91AF919F918F910F900FBE0F901F90BD
:1009A00018951F920F920FB60F9211248F939F9359
:1009B000AF93BF9380911F1590912015A0912115A1
:1009C000B09122150196A11DB11D80931F15909322
:1009D0002015A0932115B0932215BF91AF919F913F
:1009E0008F910F900FBE0F901F90189592B1907F2E
:1009F0008F70892B82B9089582B1807F866082B919
:100A0000089582B1807F896082B9089582B1807F24
:100A1000856082B9089582B1807F8A6082B9089525
:100A200082B1807F846082B9089582B1807F8260C4
:100A300082B9089582B1807F816082B9089582B1C0
:100A4000807F886082B9089582B1807F82B90895DD
:100A5000EF92FF920F931F93A0E0B0E0BC01CD0195
:100A60000E940F0D28E431EE42E850E40E94DF0BB3
:100A70000E94090A7B0100E010E0109223151092F9
:100A80002415109225151092261510921F151092FC
:100A90002015109221151092221580912315909106
:100AA0002415A0912515B091261520911F15309180
:100AB000201540912115509122158E159F05A007F4
:100AC000B10728F42E153F054007510730F382B1D6
:100AD000807F82B91F910F91FF90EF90089522B10E
:100AE000207F256022B90E942805089522B1207F29
:100AF0002A6022B90E942805089522B1207F24602F
:100B000022B9880F991F0E942805089522B1207FDD
:100B1000226022B9880F991F0E94280508958093AA
:100B2000280160932A0108953B9A4398089586B15D
:100B3000886088B9089586B1877F88B9089586B19D
:100B4000886088B988E893E120E731E0F9013197BE
:100B5000F1F70197D9F786B1877F88B988E893E1E3
:100B600020E731E0F9013197F1F70197D9F70895BE
:100B700086B1886088B988ED96ED20E731E0F9010B
:100B80003197F1F70197D9F786B1877F88B9089532
:100B9000269A2E9A0895E1E8F0E010828CEF809377
:100BA000850081E08093840093E090938B008FEF29
:100BB00080938A0090938700809386008BEA8093CD
:100BC0008000109282008CE08083089510928B0048
:100BD00090E0A0E0B0E0BC01CD010E940F0D2BE73A
:100BE00034E14EEE5FE30E94DF0B20E030E04CE0AA
:100BF00052E40E94B20B0E94090A60938A00089591
:100C000083E080938B008FEF80938A0008951F9379
:100C1000CF93DF9310E0C0E7D1E0812F0E94E6057B
:100C20008CE291E0FE013197F1F70197D9F71F5F50
:100C30001E3699F7DF91CF911F9108953B9A439803
:100C400087B1876F87B988B1807888B910BA11BA2F
:100C50001092070110920801269A2E9A81B18F6096
:100C600081B982B1807F82B9EAE0F1E08081886158
:100C70008083EBE0F1E08081886180836C98749AD6
:100C80006D98759A0895F8940E941E06EAE7F0E0C0
:100C9000108210927B0080E280937C0080E880BF0D
:100CA00086E88083E1E8F0E010828CEF8093850095
:100CB00021E02093840083E080938B009FEF90934A
:100CC0008A0080938700909386008BEA809380004F
:100CD000109282008CE08083E1E2F1E01082909338
:100CE000250120932401109229019093280110924C
:100CF0002B0190932A0110922D0190932C0189EAE7
:100D0000809320018BE08083E1ECF0E01082109270
:100D1000C00026E02093C2009FE59093C40010928B
:100D2000C50088E98083E1EDF0E010821092D000E8
:100D30002093D2009093D4001092D5008083F89431
:100D4000EAE6F0E0808182608083EC9A7894F894FF
:100D5000EAE6F0E0808188608083ED9A7894789468
:100D60000895FC0180E390E09093A50B8093A40B81
:100D70008091E80B9091E90BE931F10534F4F0939F
:100D80002A15E0932915BF010AC0EE0FFF1FE85393
:100D9000FC4E6081718170932A15609329150E9421
:100DA000E3010895CF93DF93C0E7D1E00FC082E065
:100DB0006DE040E050E021E030E00E94530180ED22
:100DC00097E0FE013197F1F70197D9F7A0912B1524
:100DD000B0912C15FD01EE0FFF1FE85CF94E8081EC
:100DE0009181892B59F0AA0FBB1FA35DBA4EED91DB
:100DF000FC91A9E3B2E0C0E0D0E003C01097B9F6DF
:100E0000F2CF8D919C911197E817F90729F488EC9E
:100E100090E00E946F0505C021961296C430D1055E
:100E200081F70E940706249721F088EC90E00E9449
:100E3000760520912B1530912C15F901EE0FFF1F2F
:100E4000E65CF94E81E090E091838083822F805DA3
:100E50008093C6002F5F3F4F30932C1520932B15A6
:100E6000DF91CF9108952DB73EB72A5030400FB68D
:100E7000F8943EBF0FBE2DBFEDB7FEB7319627EEFB
:100E800036E1ADB7BEB712963C932E93119720E092
:100E900032E033832283958384837783668351870B
:100EA00040870E94860F2DB73EB7265F3F4F0FB693
:100EB000F8943EBF0FBE2DBF0895CF92DF92EF9200
:100EC000FF920F931F93CF93DF9380911A158C3964
:100ED00090F082B1807F866082B986E98093280194
:100EE00080932A0188E59BE120E731E0F901319701
:100EF000F1F70197D9F78DB79EB70A970FB6F89417
:100F00009EBF0FBE8DBFEDB7FEB73196C7EED6E1DF
:100F1000ADB7BEB71296DC93CE93119780E092E006
:100F2000938382838091E60B9091E70B9583848372
:100F30008091E80B9091E90B978386838091E3166B
:100F40009091E416918780870E94860FEDB7FEB7D7
:100F50003A960FB6F894FEBF0FBEEDBFCE0169E022
:100F600072E00E947D0F009739F0CE0160E172E0DF
:100F70000E947D0F009749F488EB9BE020E731E069
:100F8000F9013197F1F70197D9F7109228151092CE
:100F900027158091E60B9091E70B2091E316309195
:100FA000E4168217930729F484EB90E00E946F0502
:100FB00099C0499734F48091E80B9091E90B4997D7
:100FC00064F0C2E2DFE00CE51DE0A0E7CA2EA1E07C
:100FD000DA2EF1E0EF2EF12C04C0293131058CF727
:100FE00081C08091271590912815019761F4CEE278
:100FF000D2E10EEA10E1E0E7CE2EE1E0DE2E71E074
:10100000E72EF12C35C0D8016D917C9187EE96E1E9
:101010000E947D0F009761F488E893E1F601319713
:10102000F1F70197D9F78CE390E00E94760513C0A1
:101030006881798187EE96E10E947D0F009779F4AF
:1010400088E893E1F6013197F1F70197D9F78CE33E
:1010500090E00E946F05F0922815E09227152296E5
:101060000E5F1F4FBFE0C637DB0709F0BACFBFCF17
:1010700080912715909128150197A1F1F8016081C1
:10108000718187EE96E10E947D0F009761F488E8F8
:1010900093E1F6013197F1F70197D9F788E790E0EE
:1010A0000E94760513C06881798187EE96E10E94DF
:1010B0007D0F009779F488E893E1F6013197F1F715
:1010C0000197D9F788E790E00E946F05F092281504
:1010D000E092271522960E5F1F4FF2E1C637DF0719
:1010E00009F0C6CFDF91CF911F910F91FF90EF9044
:1010F000DF90CF900895EF92FF920F931F93CF93BD
:10110000DF9311E0E12EF12CE0912B15F0912C15DD
:101110008091331690913416E817F9070CF04EC001
:10112000EE0FFF1FE35DFA4E20813181E7E1F2E02F
:1011300000E010E0808191812817390721F5C9016D
:101140000E94B1062091291530912A158091E80B53
:101150009091E90B2817390729F40E94D206C1E0C3
:10116000D0E01AC0F092FE16E092FD168091831630
:10117000909184169093E4168093E3160E945D0785
:10118000C0E0D0E009C00F5F1F4F3296013111055A
:1011900089F6C0E0D0E003C00131110559F4809117
:1011A0002B1590912C15019690932C1580932B154F
:1011B0000E947B08219709F4A7CF0FC086B18860F1
:1011C00088B988ED96ED20E731E0F9013197F1F724
:1011D0000197D9F786B1877F88B9DF91CF911F91A9
:1011E0000F91FF90EF90089582B1807F82B980E1E6
:1011F00097E220E731E0F9013197F1F70197D9F74C
:10120000E091FD16F091FE163196F093FE16E093F4
:10121000FD168091E80B9091E90B9093E70B80937A
:10122000E60B2091E3163091E4163093E90B2093FE
:10123000E80B8091291590912A152817390729F470
:101240000E94D2060E947B080895EE0FFF1FEF5701
:10125000F94E808191819093E4168093E31682B1D8
:10126000807F866082B986E98093280180932A0175
:101270000E945D070895FF920F931F93CF93DF9312
:101280000E9443060E949C000E94EF00C0E7D1E04C
:1012900040911B1550911C1581E068E021E030E081
:1012A0000E94530188EE93E0FE013197F1F7019718
:1012B000D9F780911B1590911C15019749F70E9451
:1012C00011040E949C000E94EF000E947B08C1E371
:1012D000D0E014E696E9F92E02E80E949C000E94F4
:1012E000E50280911A158C3978F184EB90E00E9428
:1012F0006F052091E3163091E4168091E80B9091F0
:10130000E90B8C9FF0018D9FF00D9C9FF00D112437
:10131000E20FF31FED5BFD4F10828091E60B909181
:10132000E70B9093E4168093E3163093E70B20933A
:10133000E60B80912B1590912C15019790932C150D
:1013400080932B150E947B084091291550912A15F6
:1013500082E06EE022E030E00E9453014091E60B13
:101360005091E70B82E062E022E030E00E945301FE
:101370004091E80B5091E90B82E066E022E030E01A
:101380000E9453014091E3165091E41682E06AE016
:1013900022E030E00E9453019091A60B8091161537
:1013A000309117152091A70B9817C0F08091181550
:1013B000231748F0981708F582B1807F866082B9BC
:1013C000F092280120C0981708F182B1807F8660D2
:1013D00082B90093280100932A017FCF80911815CC
:1013E0002317A0F0981748F082B1807F866082B9F9
:1013F00010932801F0922A0170CF82B1807F89601A
:1014000082B91093280110932A0167CF0E94F40833
:1014100064CFEF92FF920F931F937B018C0120E02A
:1014200030E040E05FE40E948B0C88238CF0C80120
:10143000B70120E030E040E05FE40E94810B0E94B1
:10144000BB0C9B01AC01205030404040504806C0CE
:10145000C801B7010E94BB0C9B01AC01B901CA01D4
:101460001F910F91FF90EF900895A0E0B0E0EBE3A3
:10147000FAE00C943B12DC012B01FA019C919230B2
:1014800008F439C1EB018881823008F433C194300B
:1014900069F4843009F02FC111969C9111978981CC
:1014A000981709F428C1ACE0B4E125C1843009F4EF
:1014B00021C18230A9F4923009F01DC19A01AD0119
:1014C00088E0EA010990AE01E90109929E0181508C
:1014D000C1F7E201898111969C918923818308C11A
:1014E000923009F407C112962D903C901397EB01AE
:1014F0008A819B811496AD90BD90CD90DC9017971A
:10150000EC80FD800E811F819101281B390BB901F0
:1015100037FF04C066277727621B730B60327105A3
:101520000CF061C0121613066CF537014801062E47
:1015300004C096948794779467940A94D2F721E034
:1015400030E040E050E004C0220F331F441F551F1D
:101550006A95D2F721503040404050402E213F2123
:1015600040235123211531054105510521F021E08A
:1015700030E040E050E079018A01E628F7280829A8
:1015800019293CC0232BD1F1260E371E3501460107
:10159000062E04C096948794779467940A94D2F7A1
:1015A00021E030E040E050E004C0220F331F441F30
:1015B000551F6A95D2F721503040404050402A21B3
:1015C0003B214C215D21211531054105510521F0BB
:1015D00021E030E040E050E059016A01A628B72838
:1015E000C828D9280BC0821593052CF01C01AA2409
:1015F000BB24650103C0EE24FF24870111969C9152
:10160000D20111968C91981709F445C0992339F0AD
:10161000A80197012A193B094C095D0906C0A601DA
:1016200095012E193F09400B510B57FD08C011823F
:101630003382228224833583468357831DC081E011
:1016400081833382228288279927DC01821B930BB6
:10165000A40BB50B84839583A683B7830DC0220F9B
:10166000331F441F551F248335834683578382814C
:1016700093810197938382832481358146815781A9
:10168000DA01C9010197A109B1098F5F9F4FAF4FDF
:10169000BF4328F30BC0918333822282EA0CFB1CE8
:1016A0000C1D1D1DE482F5820683178383E0808371
:1016B000248135814681578157FF1AC0C901AA2765
:1016C00097FDA095BA2F81709070A070B07056955C
:1016D000479537952795822B932BA42BB52B848385
:1016E0009583A683B78382819381019693838283B6
:1016F000DF0101C0D201CD01CDB7DEB7E2E10C942C
:101700005712A0E2B0E0E7E8FBE00C9447126983CF
:101710007A838B839C832D833E834F835887E9E0B4
:10172000EE2EF12CEC0EFD1ECE010196B7010E94AB
:10173000AC0E8E010F5E1F4FCE010596B8010E94C0
:10174000AC0E8A8991E089278A8BC701B801AE0166
:10175000475E5F4F0E94350A0E94D70DA096E6E0D3
:101760000C946312A0E2B0E0E8EBFBE00C944712AB
:1017700069837A838B839C832D833E834F83588731
:10178000F9E0EF2EF12CEC0EFD1ECE010196B70113
:101790000E94AC0E8E010F5E1F4FCE010596B80160
:1017A0000E94AC0EC701B801AE01475E5F4F0E94B8
:1017B000350A0E94D70DA096E6E00C946312A8E1CA
:1017C000B0E0E5EEFBE00C94431269837A838B83EF
:1017D0009C832D833E834F835887B9E0EB2EF12CF9
:1017E000EC0EFD1ECE010196B7010E94AC0E8E01DB
:1017F0000F5E1F4FCE010596B8010E94AC0E2985E1
:10180000223008F47EC03989323010F4B8017CC02F
:101810008A859A8989278A87243011F0223031F409
:10182000231709F06EC06CE074E16EC0343039F4F7
:101830001D861E861F86188A1C861B8604C03230B1
:1018400021F484E08987B7015FC02B853C858B89B3
:101850009C89281B390B3C872B87ED84FE840F85E0
:101860001889AD88BE88CF88D88CEA14FB040C0593
:101870001D0540F4EE0CFF1C001F111F21503040CD
:101880003C872B8720E030E040E050E080E090E0B3
:10189000A0E0B0E460E070E0EA14FB040C051D0574
:1018A00040F0282B392B4A2B5B2BEA18FB080C093C
:1018B0001D09B695A79597958795EE0CFF1C001FFF
:1018C000111F6F5F7F4F6F31710531F7DA01C90169
:1018D0008F779070A070B07080349105A105B1052C
:1018E00061F427FD0AC0E114F1040105110529F096
:1018F000205C3F4F4F4F5F4F20782D873E874F87AB
:10190000588BBE01675F7F4FCB010E94D70D689651
:10191000EAE00C945F12A8E1B0E0E1E9FCE00C948D
:10192000471269837A838B839C832D833E834F8305
:10193000588789E0E82EF12CEC0EFD1ECE010196B1
:10194000B7010E94AC0E8E010F5E1F4FCE010596AF
:10195000B8010E94AC0E8985823040F089898230BE
:1019600028F0C701B8010E94240F01C08FEF6896CC
:10197000E6E00C946312ACE0B0E0E1ECFCE00C9427
:101980004B1269837A838B839C83CE010196BE01BF
:101990006B5F7F4F0E94AC0E8D81823061F182308F
:1019A00050F1843021F48E81882351F12EC02F8193
:1019B000388537FD20C06E812F3131051CF066233C
:1019C000F9F023C08EE190E0821B930B29853A85C4
:1019D0004B855C8504C056954795379527958A9524
:1019E000D2F76623B1F050954095309521953F4F41
:1019F0004F4F5F4F0EC020E030E040E050E009C0A4
:101A00002FEF3FEF4FEF5FE704C020E030E040E012
:101A100050E8B901CA012C96E2E00C946712A8E0E4
:101A2000B0E0E5E1FDE00C9443127B018C0161150F
:101A300071058105910519F482E0898360C083E016
:101A400089838EE1C82ED12CDC82CB82ED82FE828E
:101A50000F831887C801B7010E94880DFC013197D8
:101A6000F7FF3BC0222733272E1B3F0B570168018E
:101A7000022E04C0D694C794B794A7940A94D2F7C0
:101A800040E050E060E070E081E090E0A0E0B0E095
:101A900004C0880F991FAA1FBB1F2A95D2F7019770
:101AA000A109B1098E219F21A023B1230097A1058F
:101AB000B10521F041E050E060E070E04A295B2987
:101AC0006C297D294D835E836F8378878EE190E05A
:101AD0008E1B9F0B9C838B8312C0309781F00E2E40
:101AE00004C0EE0CFF1C001F111F0A94D2F7ED82F8
:101AF000FE820F831887CE1ADF0ADC82CB821A821D
:101B0000CE0101960E94D70D2896EAE00C945F1250
:101B1000EF92FF920F931F937B018C0180E0E816F8
:101B200080E0F80681E0080780E0180788F48FEF6E
:101B3000E816F1040105110531F028F088E090E085
:101B4000A0E0B0E017C080E090E0A0E0B0E012C0FC
:101B500080E0E81680E0F80680E0080781E01807DA
:101B600028F088E190E0A0E0B0E004C080E190E0DF
:101B7000A0E0B0E020E230E040E050E0281B390B6C
:101B80004A0B5B0B04C016950795F794E7948A956A
:101B9000D2F7F701EC5EFB4E8081281B3109410929
:101BA0005109C9011F910F91FF90EF900895DF92A5
:101BB000EF92FF920F931F93FC01E480F580068162
:101BC0001781D1808081823048F480E090E0A0E1EC
:101BD000B0E0E82AF92A0A2B1B2BA5C0843009F4AF
:101BE0009FC0823021F4EE24FF24870105C0E11458
:101BF000F1040105110519F4E0E0F0E096C06281FE
:101C000073819FEF623879070CF05BC022E83FEFE9
:101C1000261B370B2A3131052CF020E030E040E064
:101C200050E02AC0B801A701022E04C0769567953E
:101C3000579547950A94D2F781E090E0A0E0B0E094
:101C400004C0880F991FAA1FBB1F2A95D2F70197BE
:101C5000A109B1098E219F21A023B1230097A105DD
:101C6000B10521F081E090E0A0E0B0E09A01AB0185
:101C7000282B392B4A2B5B2BDA01C9018F77907007
:101C8000A070B07080349105A105B10539F427FF2B
:101C900009C0205C3F4F4F4F5F4F04C0215C3F4F56
:101CA0004F4F5F4FE0E0F0E02030A0E03A07A0E0C7
:101CB0004A07A0E45A0710F0E1E0F0E079018A0158
:101CC00027C06038710564F5FB01E158FF4FD8016A
:101CD000C7018F779070A070B07080349105A10516
:101CE000B10539F4E7FE0DC080E490E0A0E0B0E07B
:101CF00004C08FE390E0A0E0B0E0E80EF91E0A1FF8
:101D00001B1F17FF05C016950795F794E7943196AA
:101D100087E016950795F794E7948A95D1F705C063
:101D2000EE24FF248701EFEFF0E06E2F6795662722
:101D30006795902F9F77D794DD24D7948E2F869523
:101D4000492F462B582F5D29B701CA011F910F91CA
:101D5000FF90EF90DF900895FC01DB0140815181FD
:101D60002281622F6F7770E0221F2227221F93812A
:101D7000892F880F822B282F30E0991F9927991FD0
:101D800011969C93119721153105A9F5411551051F
:101D90006105710511F482E037C082E89FEF139668
:101DA0009C938E9312979A01AB0167E0220F331F29
:101DB000441F551F6A95D1F783E08C930DC0220F05
:101DC000331F441F551F12968D919C9113970197B5
:101DD00013969C938E931297203080E0380780E012
:101DE000480780E4580758F314962D933D934D937C
:101DF0005C93179708952F3F310579F441155105EC
:101E00006105710519F484E08C93089564FF03C0A3
:101E100081E08C9312C01C9210C02F573040139653
:101E20003C932E93129783E08C9387E0440F551FC9
:101E3000661F771F8A95D1F7706414964D935D9352
:101E40006D937C93179708951F93DC01FB019C9180
:101E5000923008F447C08081823008F443C0943047
:101E600051F411961C91843099F58181682F70E0AE
:101E7000611B71093FC0843021F0923031F482300F
:101E8000B9F18181882389F12DC011961C91119798
:101E90008230F1F081811817D9F412962D913C917E
:101EA0001397828193818217930794F0281739073B
:101EB000BCF014968D919D910D90BC91A02D248124
:101EC000358146815781281739074A075B0718F47F
:101ED000112341F00AC082179307A407B50740F405
:101EE000112319F061E070E005C06FEF7FEF02C0D1
:101EF00060E070E0CB011F910895FB01DC018D9142
:101F0000019080190110D9F3990B0895AEE0B0E06B
:101F1000ECE8FFE00C9449120E891F8986E08C835F
:101F20001A8309838FEF9FE79E838D839E01265E30
:101F30003F4FCE010196688D798DA9010E94AA0FAD
:101F40002F813885020F131FF80110822E96E4E0CE
:101F50000C946512ABE0B0E0E0EBFFE00C943B12B8
:101F60003C012B015A01FC0117821682838181FDFD
:101F700003C06FEF7FEFC6C19AE0892E1E0108945F
:101F8000211C311CF3012381F20123FD859123FFE4
:101F900081912F01882309F4B2C1853239F423FDE0
:101FA000859123FF81912F01853229F490E0B301BF
:101FB0000E949D11E7CF982FFF24EE249924FFE182
:101FC000FF15D0F09B3269F09C3228F4903259F022
:101FD000933291F40EC09D3249F0903369F441E0A0
:101FE00024C052E0F52A84E0F82A28C098E0F92AB3
:101FF00025C0E0E1FE2A22C0F7FC29C0892F8053CA
:102000008A3070F4F6FE05C0989C902C1124980E2E
:1020100015C0E89CE02C1124E80EF0E2FF2A0EC067
:102020009E3229F4F6FC6BC140E4F42A07C09C36CA
:1020300019F450E8F52A02C0983649F4F20123FD5C
:10204000959123FF91912F01992309F0B8CF892F02
:102050008554833018F08052833038F444E050E0E7
:10206000A40EB51E5FE359830FC0933631F093374A
:1020700079F0933509F056C020C0F501808189833D
:1020800042E050E0A40EB51E610101E010E012C074
:10209000F501C080D180F6FC03C06FEF7FEF02C076
:1020A000692D70E042E050E0A40EB51EC6010E940A
:1020B00092118C015FE7F52214C0F501C080D18038
:1020C000F6FC03C06FEF7FEF02C0692D70E042E0C5
:1020D00050E0A40EB51EC6010E9487118C0150E885
:1020E000F52AF3FE07C01AC080E290E0B3010E9417
:1020F0009D11EA948E2D90E008171907A8F30EC0E1
:10210000F601F7FC8591F7FE81916F0190E0B30134
:102110000E949D11E110EA94015010400115110533
:1021200079F7EAC0943611F0993669F5F7FE08C0E0
:10213000F501208131814281538184E090E00AC021
:10214000F501808191819C01442737FD4095542FF2
:1021500082E090E0A80EB91E9FE6F92257FF09C061
:1021600050954095309521953F4F4F4F5F4FE0E898
:10217000FE2ACA01B901A1012AE030E00E94C9117A
:10218000D82ED21840C0953729F41F2D1F7E2AE083
:1021900030E01DC01F2D197F9F3661F0903720F46D
:1021A000983509F0ACC00FC0903739F0983709F076
:1021B000A6C004C028E030E00AC0106114FD14601D
:1021C00020E130E004C014FD166020E132E017FF8A
:1021D00008C0F501608171818281938144E050E003
:1021E00008C0F50180819181BC0180E090E042E06F
:1021F00050E0A40EB51EA1010E94C911D82ED2181C
:102200008FE7F82EF122F6FE0BC05EEFF522D9140F
:1022100038F4F4FE07C0F2FC05C08FEEF82202C0CD
:102220001D2D01C0192DF4FE0DC0FE01ED0DF11D97
:102230008081803319F499EEF92208C01F5FF2FE05
:1022400005C003C08F2D867809F01F5F0F2DF3FCAA
:1022500014C0F0FE0FC01E1510F09D2C0BC09D2C5D
:102260009E0C911A1E2D06C080E290E0B3010E94E0
:102270009D111F5F1E15C0F304C01E1510F4E11A56
:1022800001C0EE2404FF0FC080E390E0B3010E9480
:102290009D1102FF1DC001FD03C088E790E00EC044
:1022A00088E590E00BC0802F867891F001FF02C096
:1022B0008BE201C080E2F7FC8DE290E0B3010E9466
:1022C0009D1106C080E390E0B3010E949D119A9495
:1022D000D914C0F3DA94F101ED0DF11D808190E085
:1022E000B3010E949D11DD20A9F706C080E290E0B5
:1022F000B3010E949D11EA94EE20C1F743CEF30191
:1023000066817781CB012B96E2E10C945712FC0198
:102310000590615070400110D8F7809590958E0F10
:102320009F1F0895FC016150704001900110D8F783
:10233000809590958E0F9F1F08950F931F93CF93B5
:10234000DF938C01EB018B8181FF1BC082FF0DC0ED
:102350002E813F818C819D812817390764F4E881A3
:10236000F9810193F983E88306C0E885F985802F18
:102370001995892B31F48E819F8101969F838E83DD
:1023800002C00FEF1FEFC801DF91CF911F910F9196
:102390000895FA01AA27283051F1203181F1E894FB
:1023A0006F936E7F6E5F7F4F8F4F9F4FAF4FB1E048
:1023B0003ED0B4E03CD0670F781F891F9A1FA11D43
:1023C000680F791F8A1F911DA11D6A0F711D811D44
:1023D000911DA11D20D009F468943F912AE0269F09
:1023E00011243019305D3193DEF6CF010895462F68
:1023F0004770405D4193B3E00FD0C9F7F6CF462F49
:102400004F70405D4A3318F0495D31FD40524193B1
:1024100002D0A9F7EACFB4E0A6959795879577956E
:102420006795BA95C9F700976105710508959B01F5
:10243000AC010A2E06945795479537952795BA957E
:10244000C9F7620F731F841F951FA01D0895AA1B53
:10245000BB1B51E107C0AA1FBB1FA617B70710F08F
:10246000A61BB70B881F991F5A95A9F780959095C1
:10247000BC01CD0108952F923F924F925F926F92CF
:102480007F928F929F92AF92BF92CF92DF92EF9204
:10249000FF920F931F93CF93DF93CDB7DEB7CA1B85
:1024A000DB0B0FB6F894DEBF0FBECDBF19942A88A0
:1024B000398848885F846E847D848C849B84AA8458
:1024C000B984C884DF80EE80FD800C811B81AA81E5
:1024D000B981CE0FD11D0FB6F894DEBF0FBECDBFB0
:0824E000ED010895F894FFCF0F
:1024E8002564202564202564003234203120320000
:1024F80032203120323400010002000300040005BC
:102508000006000700200019001B001A002100180F
:1025180000170016001500140016000A001C001A07
:10252800001D000000000000000000000000000086
:102538000000000000000000000000000000000093
:102548000000000000000000000000000000000083
:102558000000000000000100000000000000000072
:102568000000000000000000000000000100000062
:102578000000000000000000000000000000000053
:102588000000000000000100010000000000000041
:102598000000000000000000000000000000000033
:1025A8000000000000000000000000000000000023
:1025B8000000000000000000010001000000000011
:1025C8000000000000000000000000000000000102
:1025D80001000000000000000000000000000000F2
:1025E80000000000000000000000010001000000E1
:1025F80000000000000000000000000000000000D3
:1026080000000000000000000000000000000000C2
:1026180000000000000000000000000001000100B0
:1026280000000000000000000000000000000000A2
:102638000000000000000000000000000000000092
:102648000000000000000000000000000000010081
:102658000100000000000000000000000000000071
:102668000000000000000000000000000000000062
:102678000000000000000000000000000000000052
:102688000100010000000000000000000000000040
:102698000000000000010100000000000000000030
:1026A8000000000000000000000000000000000022
:1026B8000000010001000000000000000000000010
:1026C8000000000000000000000000000000000002
:1026D80000000000000000000000000000000000F2
:1026E80000000000010001000000000000000000E0
:1026F80000000000000000000000000000000000D2
:1027080000000000000000000000000000000000C1
:1027180000000000000001000100000000000000AF
:1027280000000000000000000000000000000000A1
:102738000000000000000000000000000000000091
:10274800000000000000000001000100000000007F
:10275800000000000000000000000001010000006F
:102768000000000000000000000000000000000061
:10277800000000000000000000000100010000004F
:102788000000000000000000000000000000000041
:102798000000000000000000000000000000000031
:1027A800000000000000000000000000010001001F
:1027B8000000000000000000000000000000000011
:1027C8000000000000000000000000000000000001
:1027D80000000000000000000000000000000100F0
:1027E80001000000000000000000000000000000E0
:1027F80000000000000000000000000000000000D1
:1028080000000000000000000000000000000000C0
:1028180001000100000000000000000000000000AE
:10282800000101000000000000000000000000009E
:102838000000000000000000000000000000000090
:10284800000001000100000000000000000000007E
:102858000000000000000000000000000000000070
:102868000000000000000000000000000000000060
:10287800000000000100010000000000000000004E
:102888000000000000000000000000000000000040
:102898000000000000000000000000000000000030
:1028A800000000000000010001000000000000001E
:1028B8000000000000000000000000000000000010
:1028C8000000000000000000000000000000000000
:1028D80000000000000000000100010000000000EE
:1028E80000000000000000010100000000000000DE
:1028F80000000000000000000000000000000000D0
:1029080000000000000000000000010001000000BD
:1029180000000000000000000000000000000000AF
:10292800000000000000000000000000000000009F
:10293800000000000000000000000000010001008D
:10294800000000000000000000000000000000007F
:10295800000000000000000000000000000000006F
:10296800000000000000000000000000000001005E
:10297800010000000000000000000000000000004E
:10298800000000000000000000000000000000003F
:10299800000000000000000000000000000000002F
:1029A800010001000000000000000000000101001B
:1029B800000000000000000000000000010000000E
:1029C80000000000000000000000000000000000FF
:1029D80000000100000000000000000000000000EE
:1029E80000000000000000000000000000000001DE
:1029F80000000000000000000000000000000000CF
:102A080000000000000001000000000000000000BD
:102A180000010000000000000000000000000000AD
:102A2800010000000000000000000000000000009D
:102A3800000000000000010000000000000000008D
:102A4800000000010000000000000000000000007D
:102A5800000000000001000000000000000000006D
:102A6800000000000000000000000000000000005E
:102A7800000000000100000000000000000000004D
:102A8800000000000000010000000000000000003D
:102A9800000000000000000000000000000000002E
:102AA800000000000000010000000000000000001D
:102AB800000000000000000000000001000000000D
:102AC80000000000000000000000000000000100FD
:102AD80000000000000000010000000000000000ED
:102AE80000000000000000000000000001000000DD
:102AF80000000000000000000000000000000100CD
:102B080000000000000000000001000000000000BC
:102B180000000000000000000000000000000000AD
:102B2800000100000000000000000000000000009C
:102B3800000000000000000000000100000000008C
:102B4800000000000000000000000000000000007D
:102B5800000001000000000000000000000000006C
:102B6800000000000000000000000000010000005C
:102B7800000000000000000000000000000000004D
:102B8800000000000000000100000000000000003C
:102B9800000000000000010000000000000100002B
:102BA800000000000000000000000000000000001D
:102BB800000000000000000001000000000000000C
:102BC80000000000000001000000000000000001FB
:102BD80000000000000000000000000000000000ED
:102BE80000000000000000000000000000010000DC
:102BF80000000000000000000000000000000000CD
:102C080001000000000000000000000000000000BB
:102C180000000000000000000000000000000100AB
:102C2800000000000000000000000000010000009B
:102C3800000000000000000000000000000000008C
:102C4800000000000000000000000000000000007C
:102C5800000100000000000000000000010000006A
:102C6800000001010000000000000000000000005A
:102C7800000000000000000000000000000000004C
:102C8800000000010100000000000000000000003A
:102C9800010000000001000000000000000000002A
:102CA800000000000000000000000000000000001C
:102CB800000000000000010100000000000000000A
:102CC80001000000000000010000000000000000FA
:102CD80000000000000000000000000000000000EC
:102CE80000000000000000000001010000000000DA
:102CF80000000000010000000001000000000000CA
:102D080000000000000000000000000000000000BB
:102D180000000000000000000000000001010000A9
:102D28000000000001000000000000010000000099
:102D3800000000000000000000000000000000008B
:102D4800000000000000000000000000000000017A
:102D58000100010000000000000000000001000068
:102D6800000000000000000000000000000000005B
:102D7800000000000000000000000000000000004B
:102D88000000000100000000000001000000000039
:102D9800000000000000000000000000000000002B
:102DA800000000000000000000000000000000001B
:102DB8000000000000010000000001000000000009
:102DC80000000000000000000000000000000000FB
:102DD80000000000000000000000000000000000EB
:102DE80000000000000000010000000000000100D9
:102DF80000000000000000000000000000000000CB
:102E080000000000000000000000000000000000BA
:102E180000000000000000000001000000000100A8
:102E2800000000000000000000000000000000009A
:102E3800000000000000000000000000000000008A
:102E48000000000000000000000000010000000079
:102E58000000010000000000000000000000000069
:102E6800000000000000000000000000000000005A
:102E78000000000000000000000000000001000049
:102E880000000100300012123043474447414346D6
:102E9800424147454646454336373638383838384C
:102EA800373637363738371C0004000D000A001053
:102EB8000016001A001D002000210013000900154B
:102EC8000012000100301800010032203320323691
:102ED8000032352033203400362037203238003293
:102EE800372037203800313020313120333000325C
:102EF800392031312031320031342031352033321C
:102F08000033312031352031360031382031392035
:102F1800333400333320313920323000323220321A
:102F28003320333600333520323320323400333700
:102F38002032352032360032352032362033380000
:102F480033392032392033300032392033302034BD
:102F580030003431203333203334003333203334DA
:102F680020343200333620333720343300343320D2
:102F780033372032350032352033372033360032AC
:102F88003620333820343400343420333820323774
:102F98000032372033382032360032382033392097
:102FA8003435003435203339203239003239203372
:102FB800392032380033302034302034360034366B
:102FC8002034302033310033312034302033300086
:102FD8003332203431203437003437203431203331
:102FE8003300333320343120333200333420343249
:102FF800203438003438203432203335003335203B
:10300800343220333400343420343320333700331F
:1030180038203434203433003436203435203339E2
:10302800003430203436203435003438203437200A
:10303800343100343220343820343700EA0BF10BB5
:10304800F80BFF0B060C0F0C180C210C2A0C330C78
:103058003C0C450C4E0C570C600C690C720C7B0C2C
:10306800840C8D0C960C9F0CA80CB10CBA0CC30CDC
:10307800CC0CD50CDE0CE70CF00CF90C020D0B0D8A
:10308800140D1D0D260D2F0D380D410D4A0D530D34
:103098003334203139203138003336203337203269
:1030A800350034322033342033330034342033387D
:1030B800203236003338203236203235003235207F
:1030C8003337203433003334203333203431003362
:1030D8003020343020333100382037203237003365
:1030E800302032392033390033332034312034371B
:1030F8000033392034352034360034302033302042
:10310800323900333120343020343600343520331E
:1031180039203238003237203338203434003438FC
:10312800203432203334003431203437203438000E
:1031380034372034382034320033372034332034C5
:1031480034003433203337203336003437203431D9
:1031580020333200333620323320323200323620E8
:1031680033382032370033302031312031300032CB
:103178003020313920333300333420343220333592
:1031880000323620332032003435203436203430B3
:1031980000313220313120323900323420323320AC
:1031A800333500343320343420333800342033208E
:1031B800323500323620323520333700313620316F
:1031C8003520333100323820333920323900333555
:1031D8002034322034380033322031352031340065
:1031E8003436203430203330003332203431203329
:1031F8003300323920333920343500323820372033
:103208003600B00DB90DC20DCB0DD40DDD0DE60D98
:10321800EF0DF80DFF0D080E110E1A0E230E2C0ED1
:10322800350E3E0E470E500E590E620E6B0E740E82
:103238007D0E860E8F0E980EA10EA80EB10EBA0E38
:10324800C30ECC0ED30EDC0EE50EEE0EF70E000FFD
:10325800090F120F1B0F3220332032350032352070
:1032680033203236003236203320340036203720DF
:1032780032370032372037203238003238203720B2
:1032880038003130203131203239003239203131A3
:1032980020333000333020313120313200313420B6
:1032A800313520333100333120313520333200338A
:1032B800322031352031360031382031392033334E
:1032C800003333203139203334003334203139206E
:1032D8003230003232203233203335003335203259
:1032E800332033360033362032332032340032363E
:1032F8002032352033003320323620323500333047
:103308002032392031310031312033302032390038
:1033180033342033332031390031392033342033EA
:1033280033003336203337203432003432203337F9
:1033380020343300343420333820333900333920F3
:1033480033382032370032382033392033380033CD
:1033580038203339203435003436203430203431A5
:1033680000343120343020333100333220343120DE
:1033780034300034302034312034370034382034AD
:103388003220333700333720343220333500760F7C
:103398007D0F850F8C0F930F9B0FA20FAB0FB40FF0
:1033A800BD0FC60FCF0FD80FE10FEA0FF30FFC0FB9
:1033B80005100E1016101E1027103010391042106C
:1033C8004B1054105D1066106F10781081108A1021
:1033D80093109C10A5103333203139203138003236
:1033E800382037203237003239203131203130004F
:1033F800323520323620330033362032332033350D
:10340800003239203330203131003132203131203F
:103418003330003234203233203336003435203311
:103428003920333800332032352032360034332007
:1034380033372034320034302034312033320031F5
:1034480031203239203330003432203337203336BC
:1034580000343720343120343000313620313520E3
:1034680033320033352032332032320033332033C5
:1034780034203139003237203338203339003820AE
:10348800372032380033302031312032390032359C
:1034980020332032003230203139203334003139A2
:1034A8002033332033340032362033203235003392
:1034B800352034322033370034203320323600347C
:1034C8003120343020343600333820333920323834
:1034D800003332203135203331003237203720365F
:1034E800003331203430203431003331203135205D
:1034F8003134003339203338203434003337203422
:103508003220343800333420313920333300F61078
:10351800FF1007111011181121112A1133113C1134
:1035280045114D1156115F11681171117A118311EE
:103538008C1195119E11A511AE11B511BE11C711AF
:10354800CF11D811DF11E811F111FA1101120A1285
:1035580013121C1225123309323520333700332059
:1035680032362033380037203237203338003720BE
:1035780032382033390031312032392033390031A3
:10358800312033302034300031352033312034308D
:1035980000313520333220343100313920333320A3
:1035A800343100313920333420343200323320337F
:1035B8003520343200323320333620333700323569
:1035C8002033372034320032362033382033390064
:1035D8003239203339203338003330203430203426
:1035E8003100333320343120343000333420343246
:1035F8002033370033372032352033003338203238
:103608003620330033382032372037003339203220
:103618003820370033392032392031310034302016
:10362800333020313100343020333120313500340B
:1036380031203332203135003431203333203139D1
:1036480000343220333420313900343220333520ED
:1036580032330033372033362032330034322033CC
:1036680037203235003339203338203236003338AA
:1036780020333920323900343120343020333000BF
:103688003430203431203333003337203432203380
:10369800340076127E1286128E1296129F12A8128B
:1036A800B112BA12C312CC12D512DE12E712F012FE
:1036B800F91202130B1314131C1324132C133413B1
:1036C8003D1346134F13581361136A1373137C1376
:1036D80085138E139713A013A91301001900050071
:1036E80027001E000D0011002A0015000000000030
:1036F80000000000000102020303030304040404A1
:103708000404040405050505050505050505050565
:103718000505050506060606060606060606060645
:103728000606060606060606060606060606060631
:103738000606060607070707070707070707070715
:103748000707070707070707070707070707070701
:1037580007070707070707070707070707070707F1
:1037680007070707070707070707070707070707E1
:1037780007070707080808080808080808080808C5
:1037880008080808080808080808080808080808B1
:1037980008080808080808080808080808080808A1
:1037A8000808080808080808080808080808080891
:1037B8000808080808080808080808080808080881
:1037C8000808080808080808080808080808080871
:1037D8000808080808080808080808080808080861
:1037E8000808080808080808080808080808080851
:0437F80008080808AD
:00000001FF
