:100000000C9472000C9493000C9493000C94930045
:100010000C9493000C9477030C9452030C9493006B
:100020000C9493000C9493000C9493000C94930004
:100030000C9493000C9493000C9493000C949300F4
:100040000C9493000C9493000C9493000C949300E4
:100050000C9493000C9493000C9493000C949300D4
:100060000C9493000C947E040C9493000C949300D5
:100070000C9493000C9493000C9493000C949300B4
:100080000C9493000C9493000C9493000C949300A4
:100090000C9493000C9493000C9493000C94930094
:1000A0000C9493000C9493000C9493000C94930084
:1000B0000C9493000C9493000C9493000C94930074
:1000C0000C9493000C9493000C9493000C94930064
:1000D0000C9493000C9493000C9493000C94930054
:1000E0000C94930011241FBECFEFD1E2DEBFCDBF31
:1000F00000E00CBF1EE1A0E0B2E0E0ECF2E200E0C4
:100100000BBF02C007900D92AA32B107D9F710E2D7
:10011000AAE2BEE101C01D92A830B107E1F70E943A
:100120003A080C945E110C94000086E69EE0FC01F7
:100130003197F1F74098419840E348B9429A20E05E
:1001400038E4F9013197F1F74298FC013197F1F762
:100150004098419848B9429AF9013197F1F742988D
:10016000FC013197F1F74098419848B9429AF9015A
:100170003197F1F742980197F1F74098419880E262
:1001800088B9429AC9010197F1F74298089598B148
:100190009F7098B928B1982F907F922B98B940986A
:1001A0004198429A20E038E4F9013197F1F74298FA
:1001B00098B19F7098B998B18295807F982B98B923
:1001C00040984198429AC9010197F1F742980895E1
:1001D0000E94950086E69EE00197F1F788E20E9472
:1001E000C70081E00E94C70086E00E94C7008EE041
:1001F0000E94C70080E80E94C700089598B19F70D0
:1002000098B928B1982F907F922B98B9409A41982D
:10021000429A20E038E4F9013197F1F7429898B119
:100220009F7098B998B18295807F982B98B9409A21
:100230004198429AC9010197F1F74298089580E8E0
:100240000E94C7000895CF93DF93EC0103C00E9482
:10025000FE00219688818823D1F7DF91CF91089500
:10026000823069F0833018F48130A9F405C08330FE
:1002700049F0843081F40BC0862F815805C0862F49
:10028000815402C0862F8D560E94C7000895862F84
:100290008D520E94C70008950F931F93CF93DF9351
:1002A0008A01E901882311F0662319F40E941F01D5
:1002B00002C00E943001C530D10571F4C80160E16F
:1002C00077E20E941311CB01C09690934C1F80934C
:1002D0004B1F0E94FE0005C0C430D10511F080E024
:1002E00016C0C80168EE73E00E941311CB01609341
:1002F0008F1F9093901F6AE070E00E941311C096C8
:1003000090930520809304200E94FE0081E0C3307A
:10031000D10521F0813011F080E016C0C80164E6FB
:1003200070E00E941311CB0160938F1F9093901F78
:100330006AE070E00E941311C0969093F91F8093B9
:10034000F81F0E94FE0081E0C230D10521F081300B
:1003500011F080E016C0C8016AE070E00E9413113D
:10036000CB0160938F1F9093901F6AE070E00E9412
:100370001311C0969093931F8093921F0E94FE00CA
:1003800081E0C130D10511F0813061F4C8016AE02B
:1003900070E00E941311C096909303208093022076
:1003A0000E94FE0026971CF085E40E94FE00DF916B
:1003B000CF911F910F910895AF92BF92CF92DF928C
:1003C000EF92FF920F931F93CF93DF937C015B011A
:1003D000FC01EE0FFF1FED57F14E81E090E091839D
:1003E000808380912A1E90912B1EFC01EE0FFF1F2F
:1003F000EB51F14EF182E082AC014F5F5F4F5093C1
:100400002B1E40932A1EE616F70631F56091F5146F
:100410007091F614461757070CF045C0A5EEBEE1E3
:10042000E4E9FFE120E030E00FC02417350734F4A1
:100430008D919C9111979183808302C011821082CB
:100440002F5F3F4F129632962617370774F350935B
:10045000F6144093F51427C093E8C92E9EE1D92ED7
:1004600081E390E0E89EE001E99ED00DF89ED00D7A
:100470001124CC56D44F00E010E0F6018081918128
:10048000892B39F48881882321F0C801B5010E94A5
:10049000DC010F5F1F4F82E090E0C80ED91E21964D
:1004A0000133110551F7EE0CFF1CE3E8FEE1EE0EFF
:1004B000FF1EF7011182108280912A1E90912B1E3F
:1004C000019790932B1E80932A1EDF91CF911F914D
:1004D0000F91FF90EF90DF90CF90BF90AF90089575
:1004E00040912A1E50912B1E6091F5147091F614C4
:1004F00046175707ECF4A5EEBEE1E4E9FFE120E082
:1005000030E00FC02417350734F48D919C9111977A
:100510009183808302C0118210822F5F3F4F129619
:1005200032962617370774F35093F6144093F51458
:10053000089587B1876F87B988B1807888B90895A1
:1005400010BA11BA10920701109208010895EAE753
:10055000F0E0108210927B0080E280937C0080E8C3
:1005600080BF86E880830895982F883018F088E04F
:1005700080937B009770906290937C0080917A00CA
:10058000806480937A0080917A0084FFFCCF809110
:10059000790090917A00906190937A0010927B009C
:1005A00008950F931F93182F062F842F0E94B402D3
:1005B000482F8093911F812F602F50E023E030E07F
:1005C0000E944C011F910F91089583E00E94B40294
:1005D00080932C1E82E00E94B40280932D1E81E045
:1005E0000E94B40280932E1E8BE00E94B40280937E
:1005F000301E81E061E043E00E94D10281E065E0CD
:1006000042E00E94D10281E069E041E00E94D10213
:1006100081E06CE04BE00E94D102089581B18F60CF
:1006200081B982B1807F82B9EAE0F1E0808188619E
:100630008083EBE0F1E080818861808308956C988D
:10064000749A08956D98759A0895E1E2F1E0108228
:100650009FEF9093250181E080932401109229015E
:100660009093280110922B0190932A0110922D0152
:1006700090932C0189EA809320018BE08083089578
:10068000F894EAE6F0E0808182608083EC9A7894C6
:100690000895F894EAE6F0E0808188608083ED9A1E
:1006A000789408951F920F920FB60F9211248F9392
:1006B0009F93AF93BF938091351E9091361EA0916A
:1006C000371EB091381E0196A11DB11D8093351EB5
:1006D0009093361EA093371EB093381EBF91AF91F2
:1006E0009F918F910F900FBE0F901F9018951F92A2
:1006F0000F920FB60F9211248F939F93AF93BF93D6
:100700008091311E9091321EA091331EB091341E03
:100710000196A11DB11D8093311E9093321EA093AE
:10072000331EB093341EBF91AF919F918F910F9064
:100730000FBE0F901F90189592B1907F8F70892BEC
:1007400082B9089582B1807F866082B9089582B1AE
:10075000807F896082B9089582B1807F856082B987
:10076000089582B1807F8A6082B9089582B1807FC6
:10077000846082B9089582B1807F826082B90895D1
:1007800082B1807F816082B9089582B1807F886064
:1007900082B9089582B1807F82B90895EF92FF9265
:1007A0000F931F93A0E0B0E0BC01CD010E94FB0BB2
:1007B00028E431EE42E850E40E94CB0A0E94F5089A
:1007C0007B0100E010E01092351E1092361E109250
:1007D000371E1092381E1092311E1092321E109247
:1007E000331E1092341E8091351E9091361EA091BA
:1007F000371EB091381E2091311E3091321E40912B
:10080000331E5091341E8E159F05A007B10728F4A2
:100810002E153F054007510730F382B1807F82B922
:100820001F910F91FF90EF90089522B1207F2560D6
:1008300022B90E94CE03089522B1207F2A6022B9F6
:100840000E94CE03089522B1207F246022B9880F30
:10085000991F0E94CE03089522B1207F226022B901
:10086000880F991F0E94CE030895809328016093FA
:100870002A0108953B9A4398089586B1886088B903
:10088000089586B1877F88B9089586B1886088B950
:1008900088E893E120E731E0F9013197F1F701971A
:1008A000D9F786B1877F88B988E893E120E731E0FE
:1008B000F9013197F1F70197D9F7089586B188606A
:1008C00088B988ED96ED20E731E0F9013197F1F72D
:1008D0000197D9F786B1877F88B90895E1ECF0E0F8
:1008E00010821092C00086E08093C2008FE5809352
:1008F000C4001092C50088E9808308951F920F926A
:100900000FB60F920BB60F9211242F933F934F9374
:100910005F936F937F938F939F93AF93BF93EF9367
:10092000FF934091C60040930D1D80910E1D8D36A2
:1009300099F450E040535040FA01EE0FFF1FE35B83
:10094000F04E81E090E09183808381E06FE022E0CF
:1009500030E00E944C0133C04D3669F480913B1E5B
:1009600090913C1E9093481F8093471F40930E1D0B
:100970004093C60024C08134D1F420913B1E3091B5
:100980003C1EF901EE0FFF1FDF01AF5BB14E842F5C
:1009900090E0C0978D939C93E35BF04E11821082A0
:1009A0002F5F3F4F30933C1E20933B1E08C04134C5
:1009B00031F440930E1D10923C1E10923B1EFF918D
:1009C000EF91BF91AF919F918F917F916F915F91C7
:1009D0004F913F912F910F900BBE0F900FBE0F9034
:1009E0001F901895269A2E9A0895E1E8F0E010825B
:1009F0008CEF8093850081E08093840093E0909356
:100A00008B008FEF80938A009093870080938600FD
:100A10008BEA80938000109282008CE0808308959E
:100A200010928B0090E0A0E0B0E0BC01CD010E94EC
:100A3000FB0B2BE734E14EEE5FE30E94CB0A20E094
:100A400030E04CE052E40E949E0A0E94F508609358
:100A50008A00089583E080938B008FEF80938A0053
:100A600008951F93CF93DF9310E0C0E7D1E0812F6B
:100A70000E9410058CE291E0FE013197F1F7019799
:100A8000D9F71F5F1E3699F7DF91CF911F91089517
:100A90003B9A439887B1876F87B988B1807888B9C6
:100AA00010BA11BA1092070110920801269A2E9AD4
:100AB00081B18F6081B982B1807F82B9EAE0F1E0D3
:100AC000808188618083EBE0F1E0808188618083B0
:100AD0006C98749A6D98759A0895F8940E944805D8
:100AE000EAE7F0E0108210927B0080E280937C00C5
:100AF00080E880BF86E88083E1E8F0E010828CEF38
:100B00008093850021E02093840083E080938B0014
:100B10009FEF90938A0080938700909386008BEAE2
:100B200080938000109282008CE08083E1E2F1E00B
:100B30001082909325012093240110922901909313
:100B4000280110922B0190932A0110922D0190936D
:100B50002C0189EA809320018BE08083E1ECF0E0B6
:100B600010821092C00086E08093C2008FE58093CF
:100B7000C4001092C50088E98083F894EAE6F0E0AA
:100B8000808182608083EC9A7894F894EAE6F0E0C1
:100B9000808188608083ED9A789478940895FC0130
:100BA00080E390E09093F6148093F5148091FB1409
:100BB0009091FC14E931F10534F4F0933E1EE0937A
:100BC0003D1EBF010AC0EE0FFF1FE352F34E6081CE
:100BD000718170933E1E60933D1E0E94DC0108955A
:100BE000CF93DF93C0E7D1E00FC082E06DE040E03B
:100BF00050E021E030E00E944C0180ED97E0FE01E2
:100C00003197F1F70197D9F7A0913F1EB091401E9F
:100C1000FD01EE0FFF1FE55BF04E80819181892B76
:100C200059F0AA0FBB1FAF5BB14EED91FC91A9E249
:100C3000B2E0C0E0D0E003C01097B9F6F2CF8D91DA
:100C40009C911197E817F90729F488EC90E00E942D
:100C5000150405C021961296C530D10581F70E9472
:100C60003105259721F088EC90E00E941C0420912A
:100C70003F1E3091401EF901EE0FFF1FE35BF04E67
:100C800081E090E091838083822F805D8093C60015
:100C90002F5F3F4F3093401E20933F1EDF91CF9137
:100CA00008952DB73EB72A5030400FB6F8943EBF96
:100CB0000FBE2DBFEDB7FEB731962AEF3FE1ADB7BE
:100CC000BEB712963C932E93119720E032E0338307
:100CD00022839583848377836683518740870E942C
:100CE000720E2DB73EB7265F3F4F0FB6F8943EBF4A
:100CF0000FBE2DBF0895CF92DF92EF92FF920F9318
:100D00001F93CF93DF938091301E8C3990F082B186
:100D1000807F866082B986E98093280180932A01CA
:100D200088E59BE120E731E0F9013197F1F7019780
:100D3000D9F710923A1E1092391E2091F914309171
:100D4000FA144091F61F5091F71F2417350729F424
:100D500084EB90E00E941C04C4C02931310554F496
:100D60008091FB149091FC14499724F4493151056A
:100D70000CF4B7C08DB79EB70A970FB6F8949EBF14
:100D80000FBE8DBFEDB7FEB731968AEF9FE1ADB7CD
:100D9000BEB712969C938E93119780E092E0938356
:100DA0008283358324838091FB149091FC14978374
:100DB0008683518740870E94720EC5E3D8E10FE613
:100DC00016E1EDB7FEB73A960FB6F894FEBF0FBE28
:100DD000EDBF50E7C52E51E0D52E41E0E42EF12CB9
:100DE0008091391E90913A1E019761F4C1E4DBE1D4
:100DF00001EC19E130E7C32E31E0D32E21E0E22EE1
:100E0000F12C35C0D8016D917C918AEF9FE10E9451
:100E1000690E009761F488E893E1F6013197F1F7E4
:100E20000197D9F78CE390E00E941C0413C06881FD
:100E300079818AEF9FE10E94690E009779F488E832
:100E400093E1F6013197F1F70197D9F78CE390E040
:100E50000E941504F0923A1EE092391E22960E5F0F
:100E60001F4FB8E1C938DB0709F0BACFBFCF809177
:100E7000391E90913A1E0197A1F1F80160817181AC
:100E80008AEF9FE10E94690E009761F488E893E180
:100E9000F6013197F1F70197D9F788E790E00E94C2
:100EA0001C0413C0688179818AEF9FE10E94690E5A
:100EB000009779F488E893E1F6013197F1F701970B
:100EC000D9F788E790E00E941504F0923A1EE0926C
:100ED000391E22960E5F1F4FFBE1C938DF0709F06C
:100EE000C6CFDF91CF911F910F91FF90EF90DF90D0
:100EF000CF900895EF92FF920F931F93CF93DF93BC
:100F000071E0E72EF12CE0913F1EF091401E8091A0
:100F1000471F9091481FE817F9070CF04EC0EE0FDD
:100F2000FF1FEF5BF14E20813181E9E0F2E000E04C
:100F300010E0808191812817390721F5C9010E94AD
:100F4000CF0520913D1E30913E1E8091FB14909163
:100F5000FC142817390729F40E94F005C1E0D0E0FD
:100F60001AC0F0920720E09206208091961F90917F
:100F7000971F9093F71F8093F61F0E947B06C0E097
:100F8000D0E009C00F5F1F4F32960031110589F67E
:100F9000C0E0D0E003C00031110559F480913F1E3C
:100FA0009091401E01969093401E80933F1E0E9498
:100FB0007A07219709F4A7CF0FC086B1886088B956
:100FC00088ED96ED20E731E0F9013197F1F70197CF
:100FD000D9F786B1877F88B9DF91CF911F910F91A3
:100FE000FF90EF90089582B1807F82B980E197E20F
:100FF00020E731E0F9013197F1F70197D9F7E09156
:101000000620F09107203196F0930720E093062008
:101010008091FB149091FC149093FA148093F9142E
:101020002091F61F3091F71F3093FC142093FB148E
:1010300080913D1E90913E1E2817390729F40E9489
:10104000F0050E947A070895EE0FFF1FEC56F04E50
:10105000808191819093F71F8093F61F82B1807FEA
:10106000866082B986E98093280180932A010E94D4
:101070007B060895FF920F931F93CF93DF930E94F7
:101080006D050E9495000E94E80083E58093C600EC
:1010900002C00E941F0180910E1D8D36D1F70E9463
:1010A00095000E947A07C1E3D0E014E6B6E9FB2E72
:1010B00002E80E9495000E94E5028091301E8C3962
:1010C00078F184EB90E00E9415042091F61F309196
:1010D000F71F8091FB149091FC148C9FF0018D9F61
:1010E000F00D9C9FF00D1124E20FF31FEC56F44F0E
:1010F00010828091F9149091FA149093F71F8093C5
:10110000F61F3093FA142093F91480913F1E9091AA
:10111000401E01979093401E80933F1E0E947A07C5
:1011200040913D1E50913E1E82E06EE022E030E094
:101130000E944C014091F9145091FA1482E062E04F
:1011400022E030E00E944C014091FB145091FC14CD
:1011500082E066E022E030E00E944C014091F61F00
:101160005091F71F82E06AE022E030E00E944C01DB
:101170009091F71480912C1E30912D1E2091F8141F
:101180009817C0F080912E1E231748F0981708F585
:1011900082B1807F866082B9F092280120C09817C2
:1011A00008F182B1807F866082B9009328010093A4
:1011B0002A017FCF80912E1E2317A0F0981748F0A8
:1011C00082B1807F866082B910932801F0922A0153
:1011D00070CF82B1807F896082B91093280110930B
:1011E0002A0167CF0E94F30764CFEF92FF920F931B
:1011F0001F937B018C0120E030E040E05FE40E941F
:10120000770B88238CF0C801B70120E030E040E084
:101210005FE40E946D0A0E94A70B9B01AC01205065
:1012200030404040504806C0C801B7010E94A70B9B
:101230009B01AC01B901CA011F910F91FF90EF9082
:101240000895A0E0B0E0E7E2F9E00C942711DC019A
:101250002B01FA019C91923008F439C1EB0188818D
:10126000823008F433C1943069F4843009F02FC11E
:1012700011969C9111978981981709F428C1A1E2D0
:10128000BDE125C1843009F421C18230A9F4923036
:1012900009F01DC19A01AD0188E0EA010990AE0193
:1012A000E90109929E018150C1F7E20189811196FD
:1012B0009C918923818308C1923009F407C1129659
:1012C0002D903C901397EB018A819B811496AD90F1
:1012D000BD90CD90DC901797EC80FD800E811F8132
:1012E0009101281B390BB90137FF04C06627772706
:1012F000621B730B603271050CF061C0121613068D
:101300006CF537014801062E04C0969487947794B3
:1013100067940A94D2F721E030E040E050E004C046
:10132000220F331F441F551F6A95D2F721503040BA
:10133000404050402E213F214023512321153105AB
:101340004105510521F021E030E040E050E0790115
:101350008A01E628F728082919293CC0232BD1F156
:10136000260E371E35014601062E04C0969487943A
:10137000779467940A94D2F721E030E040E050E09F
:1013800004C0220F331F441F551F6A95D2F7215006
:101390003040404050402A213B214C215D21211505
:1013A00031054105510521F021E030E040E050E0F9
:1013B00059016A01A628B728C828D9280BC0821568
:1013C00093052CF01C01AA24BB24650103C0EE2464
:1013D000FF24870111969C91D20111968C91981748
:1013E00009F445C0992339F0A80197012A193B094E
:1013F0004C095D0906C0A60195012E193F09400B55
:10140000510B57FD08C01182338222822483358319
:10141000468357831DC081E08183338222828827DF
:101420009927DC01821B930BA40BB50B8483958356
:10143000A683B7830DC0220F331F441F551F24837B
:101440003583468357838281938101979383828377
:101450002481358146815781DA01C9010197A109AB
:10146000B1098F5F9F4FAF4FBF4328F30BC09183EC
:1014700033822282EA0CFB1C0C1D1D1DE482F582C6
:101480000683178383E080832481358146815781D9
:1014900057FF1AC0C901AA2797FDA095BA2F8170DE
:1014A0009070A070B0705695479537952795822B10
:1014B000932BA42BB52B84839583A683B78382813A
:1014C0009381019693838283DF0101C0D201CD0114
:1014D000CDB7DEB7E2E10C944311A0E2B0E0E3E760
:1014E000FAE00C94331169837A838B839C832D8378
:1014F0003E834F835887E9E0EE2EF12CEC0EFD1E63
:10150000CE010196B7010E94980D8E010F5E1F4F0C
:10151000CE010596B8010E94980D8A8991E089272D
:101520008A8BC701B801AE01475E5F4F0E94210957
:101530000E94C30CA096E6E00C944F11A0E2B0E02C
:10154000E4EAFAE00C94331169837A838B839C83F9
:101550002D833E834F835887F9E0EF2EF12CEC0E5C
:10156000FD1ECE010196B7010E94980D8E010F5EFF
:101570001F4FCE010596B8010E94980DC701B80112
:10158000AE01475E5F4F0E9421090E94C30CA096E6
:10159000E6E00C944F11A8E1B0E0E1EDFAE00C9424
:1015A0002F1169837A838B839C832D833E834F83A2
:1015B0005887B9E0EB2EF12CEC0EFD1ECE01019602
:1015C000B7010E94980D8E010F5E1F4FCE01059648
:1015D000B8010E94980D2985223008F47EC039890F
:1015E000323010F4B8017CC08A859A8989278A87AD
:1015F000243011F0223031F4231709F06EC061E27B
:101600007DE16EC0343039F41D861E861F86188A2F
:101610001C861B8604C0323021F484E08987B70120
:101620005FC02B853C858B899C89281B390B3C87A7
:101630002B87ED84FE840F851889AD88BE88CF88FE
:10164000D88CEA14FB040C051D0540F4EE0CFF1CBD
:10165000001F111F215030403C872B8720E030E0D5
:1016600040E050E080E090E0A0E0B0E460E070E0B6
:10167000EA14FB040C051D0540F0282B392B4A2BDE
:101680005B2BEA18FB080C091D09B695A7959795E1
:101690008795EE0CFF1C001F111F6F5F7F4F6F318E
:1016A000710531F7DA01C9018F779070A070B070C1
:1016B00080349105A105B10561F427FD0AC0E1144C
:1016C000F1040105110529F0205C3F4F4F4F5F4F9A
:1016D00020782D873E874F87588BBE01675F7F4FED
:1016E000CB010E94C30C6896EAE00C944B11A8E170
:1016F000B0E0EDE7FBE00C94331169837A838B83D0
:101700009C832D833E834F83588789E0E82EF12CFC
:10171000EC0EFD1ECE010196B7010E94980D8E01C0
:101720000F5E1F4FCE010596B8010E94980D898566
:10173000823040F08989823028F0C701B8010E94C8
:10174000100E01C08FEF6896E6E00C944F11ACE0EC
:10175000B0E0EDEAFBE00C94371169837A838B8368
:101760009C83CE010196BE016B5F7F4F0E94980D56
:101770008D81823061F1823050F1843021F48E818C
:10178000882351F12EC02F81388537FD20C06E810E
:101790002F3131051CF06623F9F023C08EE190E073
:1017A000821B930B29853A854B855C8504C0569531
:1017B0004795379527958A95D2F76623B1F05095CE
:1017C0004095309521953F4F4F4F5F4F0EC020E021
:1017D00030E040E050E009C02FEF3FEF4FEF5FE710
:1017E00004C020E030E040E050E8B901CA012C9686
:1017F000E2E00C945311A8E0B0E0E1E0FCE00C94CE
:101800002F117B018C01611571058105910519F47A
:1018100082E0898360C083E089838EE1C82ED12C69
:10182000DC82CB82ED82FE820F831887C801B7016C
:101830000E94740CFC013197F7FF3BC0222733272D
:101840002E1B3F0B57016801022E04C0D694C7948B
:10185000B794A7940A94D2F740E050E060E070E0BB
:1018600081E090E0A0E0B0E004C0880F991FAA1FBB
:10187000BB1F2A95D2F70197A109B1098E219F219B
:10188000A023B1230097A105B10521F041E050E06C
:1018900060E070E04A295B296C297D294D835E83D5
:1018A0006F8378878EE190E08E1B9F0B9C838B83E8
:1018B00012C0309781F00E2E04C0EE0CFF1C001FEA
:1018C000111F0A94D2F7ED82FE820F831887CE1A79
:1018D000DF0ADC82CB821A82CE0101960E94C30C01
:1018E0002896EAE00C944B11EF92FF920F931F930E
:1018F0007B018C0180E0E81680E0F80681E00807B3
:1019000080E0180788F48FEFE816F104010511054F
:1019100031F028F088E090E0A0E0B0E017C080E06F
:1019200090E0A0E0B0E012C080E0E81680E0F806A9
:1019300080E0080781E0180728F088E190E0A0E047
:10194000B0E004C080E190E0A0E0B0E020E230E050
:1019500040E050E0281B390B4A0B5B0B04C0169586
:101960000795F794E7948A95D2F7F701E75DF24E71
:101970008081281B310941095109C9011F910F912B
:10198000FF90EF900895DF92EF92FF920F931F93D5
:10199000FC01E480F58006811781D180808182304E
:1019A00048F480E090E0A0E1B0E0E82AF92A0A2BB0
:1019B0001B2BA5C0843009F49FC0823021F4EE2493
:1019C000FF24870105C0E114F1040105110519F494
:1019D000E0E0F0E096C0628173819FEF62387907A2
:1019E0000CF05BC022E83FEF261B370B2A31310594
:1019F0002CF020E030E040E050E02AC0B801A70120
:101A0000022E04C076956795579547950A94D2F7AC
:101A100081E090E0A0E0B0E004C0880F991FAA1F09
:101A2000BB1F2A95D2F70197A109B1098E219F21E9
:101A3000A023B1230097A105B10521F081E090E03A
:101A4000A0E0B0E09A01AB01282B392B4A2B5B2B8D
:101A5000DA01C9018F779070A070B0708034910561
:101A6000A105B10539F427FF09C0205C3F4F4F4F56
:101A70005F4F04C0215C3F4F4F4F5F4FE0E0F0E00D
:101A80002030A0E03A07A0E04A07A0E45A0710F08F
:101A9000E1E0F0E079018A0127C06038710564F562
:101AA000FB01E158FF4FD801C7018F779070A070FC
:101AB000B07080349105A105B10539F4E7FE0DC081
:101AC00080E490E0A0E0B0E004C08FE390E0A0E00C
:101AD000B0E0E80EF91E0A1F1B1F17FF05C0169580
:101AE0000795F794E794319687E016950795F79454
:101AF000E7948A95D1F705C0EE24FF248701EFEF24
:101B0000F0E06E2F679566276795902F9F77D794A3
:101B1000DD24D7948E2F8695492F462B582F5D298B
:101B2000B701CA011F910F91FF90EF90DF900895C8
:101B3000FC01DB01408151812281622F6F7770E0CF
:101B4000221F2227221F9381892F880F822B282F63
:101B500030E0991F9927991F11969C931197211591
:101B60003105A9F5411551056105710511F482E0B2
:101B700037C082E89FEF13969C938E9312979A0139
:101B8000AB0167E0220F331F441F551F6A95D1F741
:101B900083E08C930DC0220F331F441F551F1296F4
:101BA0008D919C911397019713969C938E93129706
:101BB000203080E0380780E0480780E4580758F379
:101BC00014962D933D934D935C93179708952F3F53
:101BD000310579F4411551056105710519F484E069
:101BE0008C93089564FF03C081E08C9312C01C9213
:101BF00010C02F57304013963C932E93129783E0DA
:101C00008C9387E0440F551F661F771F8A95D1F785
:101C1000706414964D935D936D937C93179708951C
:101C20001F93DC01FB019C91923008F447C0808136
:101C3000823008F443C0943051F411961C918430E2
:101C400099F58181682F70E0611B71093FC0843074
:101C500021F0923031F48230B9F18181882389F109
:101C60002DC011961C9111978230F1F081811817C7
:101C7000D9F412962D913C9113978281938182170A
:101C8000930794F028173907BCF014968D919D9115
:101C90000D90BC91A02D2481358146815781281754
:101CA00039074A075B0718F4112341F00AC082176D
:101CB0009307A407B50740F4112319F061E070E021
:101CC00005C06FEF7FEF02C060E070E0CB011F91B5
:101CD0000895FB01DC018D91019080190110D9F369
:101CE000990B0895AEE0B0E0E8E7FEE00C94351102
:101CF0000E891F8986E08C831A8309838FEF9FE703
:101D00009E838D839E01265E3F4FCE010196688D96
:101D1000798DA9010E94960E2F813885020F131F1D
:101D2000F80110822E96E4E00C945111ABE0B0E083
:101D3000ECE9FEE00C9427113C012B015A01FC0157
:101D400017821682838181FD03C06FEF7FEFC6C1CA
:101D50009AE0892E1E010894211C311CF301238175
:101D6000F20123FD859123FF81912F01882309F43E
:101D7000B2C1853239F423FD859123FF81912F0172
:101D8000853229F490E0B3010E948910E7CF982FA3
:101D9000FF24EE249924FFE1FF15D0F09B3269F077
:101DA0009C3228F4903259F0933291F40EC09D3257
:101DB00049F0903369F441E024C052E0F52A84E010
:101DC000F82A28C098E0F92A25C0E0E1FE2A22C0BE
:101DD000F7FC29C0892F80538A3070F4F6FE05C0C5
:101DE000989C902C1124980E15C0E89CE02C11248E
:101DF000E80EF0E2FF2A0EC09E3229F4F6FC6BC119
:101E000040E4F42A07C09C3619F450E8F52A02C0D1
:101E1000983649F4F20123FD959123FF91912F010A
:101E2000992309F0B8CF892F8554833018F0805258
:101E3000833038F444E050E0A40EB51E5FE35983CC
:101E40000FC0933631F0933779F0933509F056C0CF
:101E500020C0F5018081898342E050E0A40EB51EC8
:101E6000610101E010E012C0F501C080D180F6FCF4
:101E700003C06FEF7FEF02C0692D70E042E050E0D9
:101E8000A40EB51EC6010E947E108C015FE7F522EC
:101E900014C0F501C080D180F6FC03C06FEF7FEF66
:101EA00002C0692D70E042E050E0A40EB51EC601EC
:101EB0000E9473108C0150E8F52AF3FE07C01AC087
:101EC00080E290E0B3010E948910EA948E2D90E0A8
:101ED00008171907A8F30EC0F601F7FC8591F7FE65
:101EE00081916F0190E0B3010E948910E110EA94A2
:101EF000015010400115110579F7EAC0943611F030
:101F0000993669F5F7FE08C0F501208131814281DB
:101F1000538184E090E00AC0F501808191819C01A9
:101F2000442737FD4095542F82E090E0A80EB91E5B
:101F30009FE6F92257FF09C05095409530952195AD
:101F40003F4F4F4F5F4FE0E8FE2ACA01B901A101A0
:101F50002AE030E00E94B510D82ED21840C0953744
:101F600029F41F2D1F7E2AE030E01DC01F2D197F90
:101F70009F3661F0903720F4983509F0ACC00FC05F
:101F8000903739F0983709F0A6C004C028E030E057
:101F90000AC0106114FD146020E130E004C014FD9B
:101FA000166020E132E017FF08C0F5016081718101
:101FB0008281938144E050E008C0F50180819181E5
:101FC000BC0180E090E042E050E0A40EB51EA1010B
:101FD0000E94B510D82ED2188FE7F82EF122F6FE07
:101FE0000BC05EEFF522D91438F4F4FE07C0F2FC02
:101FF00005C08FEEF82202C01D2D01C0192DF4FE80
:102000000DC0FE01ED0DF11D8081803319F499EEB4
:10201000F92208C01F5FF2FE05C003C08F2D86782D
:1020200009F01F5F0F2DF3FC14C0F0FE0FC01E154A
:1020300010F09D2C0BC09D2C9E0C911A1E2D06C0DD
:1020400080E290E0B3010E9489101F5F1E15C0F36B
:1020500004C01E1510F4E11A01C0EE2404FF0FC0E5
:1020600080E390E0B3010E94891002FF1DC001FDD2
:1020700003C088E790E00EC088E590E00BC0802F99
:10208000867891F001FF02C08BE201C080E2F7FC8C
:102090008DE290E0B3010E94891006C080E390E0D9
:1020A000B3010E9489109A94D914C0F3DA94F10113
:1020B000ED0DF11D808190E0B3010E948910DD20BB
:1020C000A9F706C080E290E0B3010E948910EA946B
:1020D000EE20C1F743CEF30166817781CB012B96C9
:1020E000E2E10C944311FC01059061507040011035
:1020F000D8F7809590958E0F9F1F0895FC01615031
:10210000704001900110D8F7809590958E0F9F1F19
:1021100008950F931F93CF93DF938C01EB018B8175
:1021200081FF1BC082FF0DC02E813F818C819D816C
:102130002817390764F4E881F9810193F983E8836A
:1021400006C0E885F985802F1995892B31F48E8199
:102150009F8101969F838E8302C00FEF1FEFC801FE
:10216000DF91CF911F910F910895FA01AA2728308E
:1021700051F1203181F1E8946F936E7F6E5F7F4F54
:102180008F4F9F4FAF4FB1E03ED0B4E03CD0670FD0
:10219000781F891F9A1FA11D680F791F8A1F911D23
:1021A000A11D6A0F711D811D911DA11D20D009F473
:1021B00068943F912AE0269F11243019305D3193B5
:1021C000DEF6CF010895462F4770405D4193B3E09E
:1021D0000FD0C9F7F6CF462F4F70405D4A3318F045
:1021E000495D31FD4052419302D0A9F7EACFB4E0F6
:1021F000A6959795879577956795BA95C9F70097AE
:102200006105710508959B01AC010A2E069457954E
:10221000479537952795BA95C9F7620F731F841FA5
:10222000951FA01D0895AA1BBB1B51E107C0AA1F43
:10223000BB1FA617B70710F0A61BB70B881F991F67
:102240005A95A9F780959095BC01CD0108952F92DC
:102250003F924F925F926F927F928F929F92AF9236
:10226000BF92CF92DF92EF92FF920F931F93CF9383
:10227000DF93CDB7DEB7CA1BDB0B0FB6F894DEBF1A
:102280000FBECDBF19942A88398848885F846E8430
:102290007D848C849B84AA84B984C884DF80EE808A
:1022A000FD800C811B81AA81B981CE0FD11D0FB693
:1022B000F894DEBF0FBECDBFED010895F894FFCFB7
:1022C000256420256420256400080009000A000B0D
:1022D000000C000D000E000F001000110012001382
:1022E000001C001D001E001F0016000A001C001A22
:1022F000001D0000000000000000000000000000C1
:1023000000000000000000000000000000000000CD
:1023100000000000000000000000000000000000BD
:10232000000000000001020304050607080909086F
:10233000090A0B0A0A090807060504030204040631
:102340000707080A09070604040505060908050623
:10235000060708070600020102030405060708082D
:102360000708090A0A0A0908070706050403030300
:1023700005060607090907060505040405080805FA
:102380000505060707060003020102030405060708
:1023900007060708090909080706070706050402D2
:1023A00002040505060808060505040303040707DB
:1023B00004040405060605000403020102030405E3
:1023C00006070708090A0A0A090807080807060590
:1023D00003030505060709090706060504040508A1
:1023E00008050505060707060005040302010203A8
:1023F0000405060708090A0A0B0A0908090908075B
:1024000006040404040607090A080707060505056B
:102410000809060606060708070006050403020168
:102420000203040506070809090A0B0A090A0A0932
:102430000807050503030506080909080807060437
:102440000407080706050506090800070605040332
:1024500002010203040506070808090A0A090A0A14
:102460000908080504020204050708080808070609
:102470000303060707050404050808000807060506
:102480000403020102030405060708090A0A090AEF
:102490000B0A0909060503030505070808090908C9
:1024A00007040406070806050506080900090807C9
:1024B00006050403020102030405060708090908CA
:1024C000090A0B0A0A070604040404060707080A97
:1024D0000908050505060907060606070800090894
:1024E000070706050403020102030405060708089E
:1024F0000708090A0A0A0706050503030506060771
:10250000090908050404050807060505060700086B
:102510000706070706050403020102030405060770
:10252000070607080909090605050402020405054E
:10253000060808070403030407060504040506004B
:102540000908070808070605040302010203040539
:1025500006070708090A0A0A070606050303050510
:102560000607090908050404050807060505060706
:10257000000A090809090807060504030201020305
:102580000405060708090A0A0B08070706040404DD
:10259000040607090A0906050505080807060606D0
:1025A00007000B0A090A0A090807060504030201C5
:1025B0000203040506070809090A090808070505B2
:1025C00003030506080908070604040709080605A9
:1025D0000506000A0A090A0A09080807060504038D
:1025E0000201020304050607080809080808070590
:1025F0000402020405070807070603030608080586
:10260000040405000A0A090A0B0A09090807060555
:102610000403020102030405060708090809090862
:10262000060503030505070807080704040608094B
:102630000605050600090908090A0B0A0A09080720
:102640000605040302010203040506070807080A39
:10265000090706040404040607060908050505071A
:1026600008070606060008080708090A0A0A0908F2
:10267000070706050403020102030405060706070F
:1026800009090706050503030506050808050404EE
:1026900006070706050500070706070809090908D0
:1026A00007060707060504030201020304050605E1
:1026B00006080806050504020204050407070403CA
:1026C000030506060504040006070708090A0A0AA6
:1026D00009080708080706050403020102030405A8
:1026E0000607090907060605030305050508080589
:1026F00004040607070605050005060708090A0A77
:102700000B0A090809090807060504030201020368
:10271000040607090A080707060404040405080953
:10272000060505060708070606000405060708094A
:10273000090A0B0A090A0A09080706050403020127
:10274000020305060809090808070505030304072D
:102750000807060405060908060500030405060720
:102760000808090A0A090A0A0908080706050403ED
:10277000020102040507080808080705040202030D
:1027800006070706030405080805040002030405FC
:10279000060708090A0A090A0B0A090908070605B3
:1027A00004030201050507080809090806050303D3
:1027B00004060708070405060809060500040302C5
:1027C00003040505060707060708090808070605A4
:1027D00006060504050102040505060807050404AC
:1027E00003020304070603030405060504000403AB
:1027F000020304050405060605060708080908077C
:102800000607070605050201030404050708060577
:102810000504030203060704040304050605000675
:102820000504050403020304050506070808090A50
:102830000908090908070704030103040507080834
:102840000707060502030607060403040508070038
:102850000706050504030203040504050607070827
:10286000090908090A090808050403010304060701
:1028700007080807060302050607050403040708FE
:102880000007060506060504050403020304050502
:1028900006070706070809080805040403010204DF
:1028A00005050608070603020304070504030405DB
:1028B00006000807060707060505040302030405CA
:1028C00004050606050607080809060505040201B1
:1028D00003040405070807040302030606050403AE
:1028E0000405000A09080909080707060504050484
:1028F000030203040505060708080908070706047C
:102900000301030405070807060502030608070478
:1029100003040500090908090A090808070605054E
:10292000040302030405040506070708070808074F
:10293000050403010304060706070603020507084A
:102940000504030400070706070809080807060529
:10295000060605040504030203040505060506082A
:102960000705040403010204050407060302030526
:1029700006050403040006060506070808090807FB
:1029800006070706050504030203040504050405FC
:1029900007080605050402010304030607040302F1
:1029A0000405060504030004050506070808090ACE
:1029B00009080909080707060504050403020304BA
:1029C00005070808070706040301030306070605B1
:1029D00002040508070403000405040506070708A8
:1029E000090908090A09080807060505040302037E
:1029F0000304060707080807050403010205060784
:102A0000060303040708050400050403040506067D
:102A10000708080708090807070605040505040351
:102A20000402030506060707060403030201040562
:102A30000605020203060704030005040304050457
:102A40000304050504050607070809080708080721
:102A5000060603020203030406070706060504012F
:102A60000205060503020304070600060504050522
:102A700004030405040304050606070808070809FB
:102A800008070704030302020305060607070605F5
:102A900002010405060403020306070009080708EB
:102AA00008070606050403040504030405050405D8
:102AB00006070708070606050302020303040607C4
:102AC00006050401020507060302030400080807BF
:102AD000080908070706050405050403040504039F
:102AE000040506060706070706040303020203059A
:102AF0000605060502010406070403020300050596
:102B0000040506070708090807080807060605045C
:102B1000030405040304030406070706060503026D
:102B2000020302050605040103040706030200066A
:102B3000050405060605060707060708090808072D
:102B40000605060605040503040405050608070531
:102B5000040403020304070603010205060504003A
:102B60000605040506050405060605060708080906
:102B700008070607070605060403030404050708FB
:102B80000605050403020306070402010405060501
:102B900000070605060605040506050405060605E4
:102BA00006070706070809080805040403030404C8
:102BB00005050608070603020304070504010205CC
:102BC00006000807060707060506060504050605AC
:102BD000040506060506070808090605050404039A
:102BE000030404050708070403020306060502019F
:102BF0000405000707060708090808070605060672
:102C0000050405060504050606050605060807056C
:102C10000404030304040504070603020305060570
:102C2000040102000606050607080809080706074A
:102C3000070605060605040506050405040507083C
:102C40000605050404030304030607040302040540
:102C50000605020100000000000000000000000066
:102C60000000000000000000000000000000000064
:102C70000000000000000000000000000000000054
:102C80000000000000000001000000000000000043
:102C90000000000000000000000000000001000033
:102CA0000000000000000000000000000000000024
:102CB0000000000000000001000100000000000012
:102CC0000000000000000000000000000000000004
:102CD00000000000000000000000000000000000F4
:102CE00000000000000000000001000100000000E2
:102CF00000000000000000000000000000000000D4
:102D000001010000000000000000000000000000C1
:102D100000000000000000000000000100010000B1
:102D200000000000000000000000000000000000A3
:102D30000000000000000000000000000000000093
:102D40000000000000000000000000000001000181
:102D50000000000000000000000000000000000073
:102D60000000000000000000000000000000000063
:102D70000000000000000000000000000000000152
:102D80000001000000000000000000000000000042
:102D90000000000000000000000000000000000033
:102DA0000000000000000000000000000000000023
:102DB0000001000100000000000000000000000011
:102DC0000000000000000101000000000000000001
:102DD00000000000000000000000000000000000F3
:102DE00000000001000100000000000000000000E1
:102DF00000000000000000000000000000000000D3
:102E000000000000000000000000000000000000C2
:102E100000000000000100010000000000000000B0
:102E200000000000000000000000000000000000A2
:102E30000000000000000000000000000000000092
:102E40000000000000000001000100000000000080
:102E50000000000000000000000000000000000072
:102E60000000000000000000000000000000000062
:102E70000000000000000000000100010000000050
:102E80000000000000000000000000000101000040
:102E90000000000000000000000000000000000032
:102EA0000000000000000000000000010001000020
:102EB0000000000000000000000000000000000012
:102EC0000000000000000000000000000000000002
:102ED00000000000000000000000000000010001F0
:102EE00000000000000000000000000000000000E2
:102EF00000000000000000000000000000000000D2
:102F000000000000000000000000000000000001C0
:102F100000010000000000000000000000000000B0
:102F200000000000000000000000000000000000A1
:102F30000000000000000000000000000000000091
:102F4000000100010000000000000000000000007F
:102F5000000001010000000000000000000000006F
:102F60000000000000000000000000000000000061
:102F7000000000010001000000000000000000004F
:102F80000000000000000000000000000000000041
:102F90000000000000000000000000000000000031
:102FA000000000000001000100000000000000001F
:102FB0000000000000000000000000000000000011
:102FC0000000000000000000000000000000000001
:102FD00000000000000000010001000000000000EF
:102FE00000000000000000000000000000000000E1
:102FF00000000000000000000000000000000000D1
:1030000000000000000000000001000100000000BE
:1030100000000000000000000101000000000000AE
:1030200000000000000000000000000000000000A0
:10303000000000000000000000000001000100008E
:103040000000000000000000000000000000000080
:103050000000000000000000000000000000000070
:10306000000000000000000000000000000100015E
:103070000000000000000000000000000000000050
:103080000000000000000000000000000000000040
:10309000000000000000000000000000000000012F
:1030A000000100000000000000000000000000001F
:1030B0000000000000000000000000000000000010
:1030C0000000000000000000000000000000000000
:1030D00000010001000000000000000000000101EC
:1030E00000000000000000000000000000010000DF
:1030F00000000000000000000000000000000000D0
:1031000000000001000000000000000000000000BE
:1031100000000000000000000000000000000000AF
:10312000010000000000000000000000000000009E
:10313000000000000000000100000000000000008E
:10314000000001000000000000000000000000007E
:10315000000100000000000000000000000000006E
:10316000000000000000000100000000000000005E
:10317000000000000100000000000000000000004E
:10318000000000000000010000000000000000003E
:10319000000000000000000000000000000000002F
:1031A000000000000001000000000000000000001E
:1031B000000000000000000100000000000000000E
:1031C00000000000000000000000000000000000FF
:1031D00000000000000000010000000000000000EE
:1031E00000000000000000000000000001000000DE
:1031F00000000000000000000000000000000001CE
:1032000000000000000000000100000000000000BD
:1032100000000000000000000000000000010000AD
:10322000000000000000000000000000000000019D
:10323000000000000000000000000100000000008D
:10324000000000000000000000000000000000007E
:10325000000001000000000000000000000000006D
:10326000000000000000000000000001000000005D
:10327000000000000000000000000000000000004E
:10328000000000010000000000000000000000003D
:10329000000000000000000000000000000100002D
:1032A000000000000000000000000000000000001E
:1032B000000000000000000001000000000000000D
:1032C00000000000000000010000000000000100FC
:1032D00000000000000000000000000000000000EE
:1032E00000000000000000000001000000000000DD
:1032F00000000000000000010000000000000000CD
:1033000001000000000000000000000000000000BC
:1033100000000000000000000000000000000100AC
:10332000000000000000000000000000000000009D
:10333000000100000000000000000000000000008C
:10334000000000000000000000000000000000017C
:10335000000000000000000000000000000100006C
:10336000000000000000000000000000000000005D
:10337000000000000000000000000000000000004D
:10338000000001000000000000000000000100003B
:10339000000000010100000000000000000000002B
:1033A000000000000000000000000000000000001D
:1033B000000000000101000000000000000000000B
:1033C00000010000000001000000000000000000FB
:1033D00000000000000000000000000000000000ED
:1033E00000000000000000010100000000000000DB
:1033F00000010000000000000100000000000000CB
:1034000000000000000000000000000000000000BC
:1034100000000000000000000000010100000000AA
:10342000000000000001000000000100000000009A
:10343000000000000000000000000000000000008C
:10344000000000000000000000000000000101007A
:10345000000000000001000000000000010000006A
:10346000000000000000000000000000000000005C
:10347000000000000000000000000000000000004C
:103480000101000100000000000000000000010038
:10349000000000000000000000000000000000002C
:1034A000000000000000000000000000000000001C
:1034B000000000000100000000000001000000000A
:1034C00000000000000000000000000000000000FC
:1034D00000000000000000000000000000000000EC
:1034E00000000000000001000000000100000000DA
:1034F00000000000000000000000000000000000CC
:1035000000000000000000000000000000000000BB
:1035100000000000000000000100000000000001A9
:10352000000000000000000000000000000000009B
:10353000000000000000000000000000000000008B
:103540000000000000000000000001000000000179
:10355000000000000000000000000000000000006B
:10356000000000000000000000000000000000005B
:10357000000000000000000000000000010000004A
:10358000000000010000000000000000000000003A
:10359000000000000000000000000000000000002B
:1035A000000000000000000000000000000001001A
:1035B0000000000100300012120C000D0032392012
:1035C0003131203132003220332032360032352082
:1035D000332034003620372032380032372037206D
:1035E0003800313020313120333000313420313552
:1035F000203332003331203135203136003138204C
:103600003139203334003333203139203230003225
:1036100032203233203336003335203233203234F7
:103620000033372032352032360032352032362012
:1036300033380033392032392033300032392033E7
:1036400030203430003431203333203334003333EE
:1036500020333420343200333620333720343300E3
:10366000343320333720323500323520333720339E
:1036700036003236203338203434003434203338A6
:1036800020323700323720333820323600323820AB
:103690003339203435003435203339203239003283
:1036A000392033392032380033302034302034365A
:1036B0000034362034302033310033312034302090
:1036C0003330003332203431203437003437203463
:1036D000312033330033332034312033320033345C
:1036E000203432203438003438203432203335004E
:1036F0003335203432203334003434203433203313
:103700003700333820343420343300343620343515
:10371000203339003430203436203435003438201A
:10372000343720343100343220343820343700FD2F
:103730001406150D1514151B1522152B1534153DE2
:103740001546154F15581561156A1573157C1585A5
:10375000158E159715A015A915B215BB15C415CD55
:1037600015D615DF15E815F115FA1503160C161503
:10377000161E1627163016391642164B1654165DAD
:103780001666163334203139203138003336203371
:103790003720323500343220333420333300343490
:1037A000203338203236003338203236203235008C
:1037B0003235203337203433003334203333203450
:1037C000310033302034302033310038203720327C
:1037D000370033302032392033390033332034314D
:1037E000203437003339203435203436003430204B
:1037F0003330203239003331203430203436003435
:1038000035203339203238003237203338203434F1
:10381000003438203432203334003431203437201F
:1038200034380034372034382034320033372034F1
:1038300033203434003433203337203336003437E8
:1038400020343120333200333620323320323200FC
:1038500032362033382032370033302031312031B6
:1038600030003230203139203333003334203432C9
:1038700020333500323620332032003435203436C0
:1038800020343000313220313120323900323420BE
:10389000323320333500343320343420333800348D
:1038A0002033203235003236203235203337003194
:1038B0003620313520333100323820333920323947
:1038C0000033352034322034380033322031352073
:1038D0003134003436203430203330003332203459
:1038E0003120333300323920333920343500323837
:1038F0002037203600C316CC16D516DE16E716F094
:1039000016F91602170B1712171B1724172D173647
:10391000173F17481751175A1763176C1775177EFB
:1039200017871790179917A217AB17B417BB17C4AF
:1039300017CD17D617DF17E617EF17F81701180A74
:103940001813181C1825182E183220332032350071
:1039500032352033203236003236203320340036E0
:1039600020372032370032372037203238003238C3
:1039700020372038003130203131203239003239BF
:1039800020313120333000333020313120313200CA
:10399000313420313520333100333120313520337B
:1039A0003200333220313520313600313820313980
:1039B0002033330033332031392033340033342083
:1039C0003139203230003232203233203335003367
:1039D0003520323320333600333620323320323430
:1039E0000032362032352033003320323620323553
:1039F0000033302032392031310031312033302052
:103A00003239003334203333203139003139203317
:103A1000342033330033362033372034320034320D
:103A20002033372034330034342033382033390006
:103A300033392033382032370032382033392033BD
:103A400038003338203339203435003436203430D0
:103A500020343100343120343020333100333220EF
:103A600034312034300034302034312034370034C5
:103A70003820343220333700333720343220333586
:103A8000008918901898189F18A618AE18B518BE77
:103A900018C718D018D918E218EB18F418FD180632
:103AA000190F1918192119291931193A1943194CE3
:103AB0001955195E1967197019791982198B19949A
:103AC000199D19A619AF19B819333320313920318E
:103AD0003800323820372032370032392031312057
:103AE0003130003235203236203300333620323345
:103AF000203335003239203330203131003132204B
:103B00003131203330003234203233203336003428
:103B10003520333920333800332032352032360017
:103B200034332033372034320034302034312033E2
:103B300032003131203239203330003432203337F3
:103B400020333600343720343120343000313620F1
:103B500031352033320033352032332032320033D6
:103B60003320333420313900323720333820333991
:103B700000382037203238003330203131203239BC
:103B800000323520332032003230203139203334B6
:103B900000313920333320333400323620332032A1
:103BA000350033352034322033370034203320328F
:103BB0003600343120343020343600333820333965
:103BC0002032380033322031352033310032372073
:103BD0003720360033312034302034310033312067
:103BE0003135203134003339203338203434003338
:103BF0003720343220343800333420313920333305
:103C000000091A121A1A1A231A2B1A341A3D1A46C4
:103C10001A4F1A581A601A691A721A7B1A841A8D66
:103C20001A961A9F1AA81AB11AB81AC11AC81AD124
:103C30001ADA1AE21AEB1AF21AFB1A041B0D1B14F9
:103C40001B1D1B261B2F1B381B3309323520333716
:103C500000332032362033380037203237203338D3
:103C600000372032382033390031312032392033C7
:103C700039003131203330203430003135203331B8
:103C800020343000313520333220343100313920B6
:103C90003333203431003139203334203432003290
:103CA000332033352034320032332033362033375B
:103CB000003235203337203432003236203338207A
:103CC000333900323920333920333800333020344F
:103CD0003020343100333320343120343000333459
:103CE000203432203337003337203235203300334D
:103CF0003820323620330033382032372037003333
:103D00003920323820370033392032392031310020
:103D10003430203330203131003430203331203101
:103D20003500343120333220313500343120333303
:103D300020313900343220333420313900343220FC
:103D400033352032330033372033362032330034DA
:103D500032203337203235003339203338203236A1
:103D600000333820333920323900343120343020C8
:103D700033300034302034312033330033372034B3
:103D80003220333400891B911B991BA11BA91BB244
:103D90001BBB1BC41BCD1BD61BDF1BE81BF11BFA77
:103DA0001B031C0C1C151C1E1C271C2F1C371C3F26
:103DB0001C471C501C591C621C6B1C741C7D1C86EF
:103DC0001C8F1C981CA11CAA1CB31CBC1C303001ED
:103DD0000019000500270028000D0011002A001519
:103DE00000000000000000000000010202030303C5
:103DF000030404040404040404050505050505057D
:103E0000050505050505050505060606060606065B
:103E10000606060606060606060606060606060642
:103E2000060606060606060606070707070707072B
:103E30000707070707070707070707070707070712
:103E40000707070707070707070707070707070702
:103E500007070707070707070707070707070707F2
:103E600007070707070707070708080808080808DB
:103E700008080808080808080808080808080808C2
:103E800008080808080808080808080808080808B2
:103E900008080808080808080808080808080808A2
:103EA0000808080808080808080808080808080892
:103EB0000808080808080808080808080808080882
:103EC0000808080808080808080808080808080872
:103ED0000808080808080808080808080808080862
:0A3EE0000808080808080808080090
:00000001FF
